{
  "contractName": "BetCore",
  "abi": [
    {
      "inputs": [],
      "stateMutability": "payable",
      "type": "constructor",
      "payable": true
    },
    {
      "anonymous": false,
      "inputs": [
        {
          "indexed": false,
          "internalType": "address",
          "name": "newContract",
          "type": "address"
        }
      ],
      "name": "ContractUpgrade",
      "type": "event"
    },
    {
      "anonymous": false,
      "inputs": [
        {
          "indexed": false,
          "internalType": "string",
          "name": "description",
          "type": "string"
        }
      ],
      "name": "LogMatchResultUpdate",
      "type": "event"
    },
    {
      "anonymous": false,
      "inputs": [
        {
          "indexed": false,
          "internalType": "string",
          "name": "description",
          "type": "string"
        }
      ],
      "name": "LogNewOraclizeQuery",
      "type": "event"
    },
    {
      "anonymous": false,
      "inputs": [
        {
          "indexed": false,
          "internalType": "bytes32",
          "name": "queryId",
          "type": "bytes32"
        }
      ],
      "name": "LogQueryId",
      "type": "event"
    },
    {
      "anonymous": false,
      "inputs": [
        {
          "indexed": true,
          "internalType": "uint256",
          "name": "matchId",
          "type": "uint256"
        },
        {
          "indexed": false,
          "internalType": "uint256",
          "name": "home",
          "type": "uint256"
        },
        {
          "indexed": false,
          "internalType": "uint256",
          "name": "away",
          "type": "uint256"
        },
        {
          "indexed": true,
          "internalType": "uint256",
          "name": "status",
          "type": "uint256"
        }
      ],
      "name": "MatchUpdated",
      "type": "event"
    },
    {
      "anonymous": false,
      "inputs": [
        {
          "indexed": true,
          "internalType": "uint256",
          "name": "matchId",
          "type": "uint256"
        }
      ],
      "name": "NewMatchCreated",
      "type": "event"
    },
    {
      "anonymous": false,
      "inputs": [
        {
          "indexed": true,
          "internalType": "address",
          "name": "creator",
          "type": "address"
        },
        {
          "indexed": true,
          "internalType": "uint256",
          "name": "matchId",
          "type": "uint256"
        },
        {
          "indexed": false,
          "internalType": "bytes20",
          "name": "wagerId",
          "type": "bytes20"
        },
        {
          "indexed": false,
          "internalType": "uint256",
          "name": "wagerType",
          "type": "uint256"
        }
      ],
      "name": "NewWagerCreated",
      "type": "event"
    },
    {
      "anonymous": false,
      "inputs": [
        {
          "indexed": false,
          "internalType": "string",
          "name": "description",
          "type": "string"
        },
        {
          "indexed": false,
          "internalType": "address",
          "name": "addr",
          "type": "address"
        }
      ],
      "name": "UpdateAddress",
      "type": "event"
    },
    {
      "anonymous": false,
      "inputs": [
        {
          "indexed": true,
          "internalType": "address",
          "name": "sender",
          "type": "address"
        },
        {
          "indexed": true,
          "internalType": "address",
          "name": "creator",
          "type": "address"
        },
        {
          "indexed": true,
          "internalType": "bytes20",
          "name": "wagerId",
          "type": "bytes20"
        }
      ],
      "name": "WagerAccepted",
      "type": "event"
    },
    {
      "anonymous": false,
      "inputs": [
        {
          "indexed": true,
          "internalType": "bytes20",
          "name": "wagerId",
          "type": "bytes20"
        },
        {
          "indexed": true,
          "internalType": "uint256",
          "name": "matchId",
          "type": "uint256"
        }
      ],
      "name": "WagerSettled",
      "type": "event"
    },
    {
      "stateMutability": "payable",
      "type": "fallback",
      "payable": true
    },
    {
      "inputs": [],
      "name": "ceoAddress",
      "outputs": [
        {
          "internalType": "address",
          "name": "",
          "type": "address"
        }
      ],
      "stateMutability": "view",
      "type": "function",
      "constant": true
    },
    {
      "inputs": [],
      "name": "cfoAddress",
      "outputs": [
        {
          "internalType": "address payable",
          "name": "",
          "type": "address"
        }
      ],
      "stateMutability": "view",
      "type": "function",
      "constant": true
    },
    {
      "inputs": [],
      "name": "cooAddress",
      "outputs": [
        {
          "internalType": "address",
          "name": "",
          "type": "address"
        }
      ],
      "stateMutability": "view",
      "type": "function",
      "constant": true
    },
    {
      "inputs": [
        {
          "internalType": "uint256",
          "name": "matchId",
          "type": "uint256"
        },
        {
          "internalType": "uint256",
          "name": "startTime",
          "type": "uint256"
        }
      ],
      "name": "createMatch",
      "outputs": [
        {
          "internalType": "bool",
          "name": "",
          "type": "bool"
        }
      ],
      "stateMutability": "nonpayable",
      "type": "function"
    },
    {
      "inputs": [
        {
          "internalType": "bytes20",
          "name": "wagerId",
          "type": "bytes20"
        }
      ],
      "name": "determineWagerResult",
      "outputs": [
        {
          "internalType": "uint256",
          "name": "matchResult",
          "type": "uint256"
        }
      ],
      "stateMutability": "nonpayable",
      "type": "function"
    },
    {
      "inputs": [],
      "name": "getGasCostForValidation",
      "outputs": [
        {
          "internalType": "uint256",
          "name": "",
          "type": "uint256"
        }
      ],
      "stateMutability": "nonpayable",
      "type": "function"
    },
    {
      "inputs": [
        {
          "internalType": "uint256",
          "name": "",
          "type": "uint256"
        }
      ],
      "name": "matchStructsById",
      "outputs": [
        {
          "internalType": "uint256",
          "name": "home",
          "type": "uint256"
        },
        {
          "internalType": "uint256",
          "name": "away",
          "type": "uint256"
        },
        {
          "internalType": "uint256",
          "name": "status",
          "type": "uint256"
        },
        {
          "internalType": "uint256",
          "name": "startTime",
          "type": "uint256"
        },
        {
          "internalType": "bool",
          "name": "created",
          "type": "bool"
        }
      ],
      "stateMutability": "view",
      "type": "function",
      "constant": true
    },
    {
      "inputs": [
        {
          "internalType": "uint256",
          "name": "",
          "type": "uint256"
        }
      ],
      "name": "matches",
      "outputs": [
        {
          "internalType": "uint256",
          "name": "",
          "type": "uint256"
        }
      ],
      "stateMutability": "view",
      "type": "function",
      "constant": true
    },
    {
      "inputs": [],
      "name": "newContractAddress",
      "outputs": [
        {
          "internalType": "address",
          "name": "",
          "type": "address"
        }
      ],
      "stateMutability": "view",
      "type": "function",
      "constant": true
    },
    {
      "inputs": [],
      "name": "oracleDataSourceUrl",
      "outputs": [
        {
          "internalType": "string",
          "name": "",
          "type": "string"
        }
      ],
      "stateMutability": "view",
      "type": "function",
      "constant": true
    },
    {
      "inputs": [],
      "name": "oracleGasLimit",
      "outputs": [
        {
          "internalType": "uint256",
          "name": "",
          "type": "uint256"
        }
      ],
      "stateMutability": "view",
      "type": "function",
      "constant": true
    },
    {
      "inputs": [],
      "name": "pause",
      "outputs": [],
      "stateMutability": "nonpayable",
      "type": "function"
    },
    {
      "inputs": [],
      "name": "pauseQuery",
      "outputs": [],
      "stateMutability": "nonpayable",
      "type": "function"
    },
    {
      "inputs": [],
      "name": "paused",
      "outputs": [
        {
          "internalType": "bool",
          "name": "",
          "type": "bool"
        }
      ],
      "stateMutability": "view",
      "type": "function",
      "constant": true
    },
    {
      "inputs": [
        {
          "internalType": "address",
          "name": "_newCEO",
          "type": "address"
        }
      ],
      "name": "setCEO",
      "outputs": [],
      "stateMutability": "nonpayable",
      "type": "function"
    },
    {
      "inputs": [
        {
          "internalType": "address payable",
          "name": "_newCFO",
          "type": "address"
        }
      ],
      "name": "setCFO",
      "outputs": [],
      "stateMutability": "nonpayable",
      "type": "function"
    },
    {
      "inputs": [
        {
          "internalType": "address",
          "name": "_newCOO",
          "type": "address"
        }
      ],
      "name": "setCOO",
      "outputs": [],
      "stateMutability": "nonpayable",
      "type": "function"
    },
    {
      "inputs": [
        {
          "internalType": "uint256",
          "name": "newGasPrice",
          "type": "uint256"
        }
      ],
      "name": "setOraclizeGasPrice",
      "outputs": [],
      "stateMutability": "nonpayable",
      "type": "function"
    },
    {
      "inputs": [
        {
          "internalType": "bytes20",
          "name": "wagerId",
          "type": "bytes20"
        },
        {
          "internalType": "string",
          "name": "sport",
          "type": "string"
        },
        {
          "internalType": "uint256",
          "name": "matchId",
          "type": "uint256"
        }
      ],
      "name": "settleWager",
      "outputs": [
        {
          "internalType": "bool",
          "name": "",
          "type": "bool"
        }
      ],
      "stateMutability": "payable",
      "type": "function",
      "payable": true
    },
    {
      "inputs": [],
      "name": "unPauseQuery",
      "outputs": [],
      "stateMutability": "nonpayable",
      "type": "function"
    },
    {
      "inputs": [
        {
          "internalType": "uint256",
          "name": "matchId",
          "type": "uint256"
        },
        {
          "internalType": "uint256",
          "name": "home",
          "type": "uint256"
        },
        {
          "internalType": "uint256",
          "name": "away",
          "type": "uint256"
        },
        {
          "internalType": "uint256",
          "name": "status",
          "type": "uint256"
        },
        {
          "internalType": "bytes20",
          "name": "wagerId",
          "type": "bytes20"
        }
      ],
      "name": "updateMatch",
      "outputs": [
        {
          "internalType": "bool",
          "name": "",
          "type": "bool"
        }
      ],
      "stateMutability": "nonpayable",
      "type": "function"
    },
    {
      "inputs": [
        {
          "internalType": "string",
          "name": "newUrl",
          "type": "string"
        }
      ],
      "name": "updateOracleDataSourceUrl",
      "outputs": [],
      "stateMutability": "nonpayable",
      "type": "function"
    },
    {
      "inputs": [
        {
          "internalType": "uint256",
          "name": "newGasLimit",
          "type": "uint256"
        }
      ],
      "name": "updateOraclizeGasLimit",
      "outputs": [],
      "stateMutability": "nonpayable",
      "type": "function"
    },
    {
      "inputs": [
        {
          "internalType": "bytes32",
          "name": "",
          "type": "bytes32"
        }
      ],
      "name": "validQueryIds",
      "outputs": [
        {
          "internalType": "address",
          "name": "",
          "type": "address"
        }
      ],
      "stateMutability": "view",
      "type": "function",
      "constant": true
    },
    {
      "inputs": [],
      "name": "withdrawBalance",
      "outputs": [],
      "stateMutability": "nonpayable",
      "type": "function"
    },
    {
      "inputs": [],
      "name": "unpause",
      "outputs": [],
      "stateMutability": "nonpayable",
      "type": "function"
    },
    {
      "inputs": [
        {
          "internalType": "address",
          "name": "_v2Address",
          "type": "address"
        }
      ],
      "name": "setNewAddress",
      "outputs": [],
      "stateMutability": "nonpayable",
      "type": "function"
    },
    {
      "inputs": [],
      "name": "etherBalance",
      "outputs": [
        {
          "internalType": "uint256",
          "name": "",
          "type": "uint256"
        }
      ],
      "stateMutability": "view",
      "type": "function",
      "constant": true
    },
    {
      "inputs": [],
      "name": "pauseQueries",
      "outputs": [],
      "stateMutability": "nonpayable",
      "type": "function"
    },
    {
      "inputs": [
        {
          "internalType": "uint256",
          "name": "matchId",
          "type": "uint256"
        }
      ],
      "name": "getMatch",
      "outputs": [
        {
          "internalType": "bytes20[]",
          "name": "wagerIds",
          "type": "bytes20[]"
        },
        {
          "internalType": "uint256",
          "name": "status",
          "type": "uint256"
        },
        {
          "internalType": "uint256",
          "name": "home",
          "type": "uint256"
        },
        {
          "internalType": "uint256",
          "name": "away",
          "type": "uint256"
        },
        {
          "internalType": "uint256",
          "name": "startTime",
          "type": "uint256"
        }
      ],
      "stateMutability": "view",
      "type": "function",
      "constant": true
    },
    {
      "inputs": [
        {
          "internalType": "bytes20",
          "name": "_wagerId",
          "type": "bytes20"
        }
      ],
      "name": "getWager",
      "outputs": [
        {
          "internalType": "address",
          "name": "creator",
          "type": "address"
        },
        {
          "internalType": "address",
          "name": "taker",
          "type": "address"
        },
        {
          "internalType": "uint256",
          "name": "creatorSide",
          "type": "uint256"
        },
        {
          "internalType": "uint256",
          "name": "takerSide",
          "type": "uint256"
        },
        {
          "internalType": "uint256",
          "name": "creatorRisk",
          "type": "uint256"
        },
        {
          "internalType": "uint256",
          "name": "takerRisk",
          "type": "uint256"
        },
        {
          "internalType": "uint256",
          "name": "wagerType",
          "type": "uint256"
        },
        {
          "internalType": "uint256",
          "name": "spread",
          "type": "uint256"
        },
        {
          "internalType": "bool",
          "name": "isSettled",
          "type": "bool"
        },
        {
          "internalType": "uint256",
          "name": "matchId",
          "type": "uint256"
        }
      ],
      "stateMutability": "view",
      "type": "function",
      "constant": true
    },
    {
      "inputs": [
        {
          "internalType": "uint256",
          "name": "_creatorSide",
          "type": "uint256"
        },
        {
          "internalType": "uint256",
          "name": "_creatorRisk",
          "type": "uint256"
        },
        {
          "internalType": "uint256",
          "name": "_takerRisk",
          "type": "uint256"
        },
        {
          "internalType": "uint256",
          "name": "_wagerType",
          "type": "uint256"
        },
        {
          "internalType": "uint256",
          "name": "_spread",
          "type": "uint256"
        },
        {
          "internalType": "uint256",
          "name": "matchId",
          "type": "uint256"
        },
        {
          "internalType": "string",
          "name": "sport",
          "type": "string"
        }
      ],
      "name": "createWager",
      "outputs": [
        {
          "internalType": "bytes20",
          "name": "",
          "type": "bytes20"
        }
      ],
      "stateMutability": "payable",
      "type": "function",
      "payable": true
    },
    {
      "inputs": [
        {
          "internalType": "uint256",
          "name": "_amountToRisk",
          "type": "uint256"
        },
        {
          "internalType": "bytes20",
          "name": "_wagerId",
          "type": "bytes20"
        }
      ],
      "name": "acceptWager",
      "outputs": [
        {
          "internalType": "bool",
          "name": "",
          "type": "bool"
        }
      ],
      "stateMutability": "nonpayable",
      "type": "function"
    }
  ],
  "bytecode": "0x60806040526000600260146101000a81548160ff0219169083151502179055506000600260156101000a81548160ff02191690831515021790555060616003556000600460006101000a81548160ff02191690831515021790555062061a806005556040518060400160405280600381526020017f746264000000000000000000000000000000000000000000000000000000000081525060069080519060200190620000ae92919062000136565b50336000806101000a81548173ffffffffffffffffffffffffffffffffffffffff021916908373ffffffffffffffffffffffffffffffffffffffff16021790555033600260006101000a81548173ffffffffffffffffffffffffffffffffffffffff021916908373ffffffffffffffffffffffffffffffffffffffff1602179055506200024b565b828054620001449062000215565b90600052602060002090601f016020900481019282620001685760008555620001b4565b82601f106200018357805160ff1916838001178555620001b4565b82800160010185558215620001b4579182015b82811115620001b357825182559160200191906001019062000196565b5b509050620001c39190620001c7565b5090565b5b80821115620001e2576000816000905550600101620001c8565b5090565b7f4e487b7100000000000000000000000000000000000000000000000000000000600052602260045260246000fd5b600060028204905060018216806200022e57607f821691505b60208210811415620002455762000244620001e6565b5b50919050565b612ebd806200025b6000396000f3fe6080604052600436106101f25760003560e01c80636af04a571161010d578063ad66e52a116100a0578063c67120501161006f578063c6712050146106df578063c7b09dce1461071c578063cc2807da14610733578063d6ddc67e1461074a578063f5a0ea6c1461077a576101f3565b8063ad66e52a14610618578063b047fb5014610643578063b7c64b431461066e578063be1b99771461069e576101f3565b80637beddc91116100dc5780637beddc91146105415780638456cb59146105875780639a9114a61461059e578063a5e96e48146105db576101f3565b80636af04a571461049957806371587988146104c457806371c82c14146104ed57806374e5741e14610516576101f3565b80633f4ba83a11610185578063542480901161015457806354248090146104175780635b6f0b1e1461042e5780635c975abb146104575780635fd8c71014610482576101f3565b80633f4ba83a1461036f5780634768d4ef146103865780634d601639146103c35780634e0a3379146103ee576101f3565b806327d7874c116101c157806327d7874c146102b35780632ba73c15146102dc5780633aa80880146103055780633d092b3d1461032e576101f3565b806305121bd3146101f55780630519ce79146102205780630a0f81681461024b5780631885f48814610276576101f3565b5b005b34801561020157600080fd5b5061020a6107b7565b6040516102179190612393565b60405180910390f35b34801561022c57600080fd5b506102356107bd565b60405161024291906123ef565b60405180910390f35b34801561025757600080fd5b506102606107e3565b60405161026d919061242b565b60405180910390f35b34801561028257600080fd5b5061029d600480360381019061029891906124b2565b610807565b6040516102aa9190612393565b60405180910390f35b3480156102bf57600080fd5b506102da60048036038101906102d5919061250b565b610a28565b005b3480156102e857600080fd5b5061030360048036038101906102fe919061250b565b610afd565b005b34801561031157600080fd5b5061032c6004803603810190610327919061267e565b610bd3565b005b34801561033a57600080fd5b50610355600480360381019061035091906126f3565b610d15565b6040516103669594939291906127de565b60405180910390f35b34801561037b57600080fd5b50610384610dcb565b005b34801561039257600080fd5b506103ad60048036038101906103a891906126f3565b610e46565b6040516103ba9190612393565b60405180910390f35b3480156103cf57600080fd5b506103d8610e6a565b6040516103e59190612393565b60405180910390f35b3480156103fa57600080fd5b5061041560048036038101906104109190612864565b610e73565b005b34801561042357600080fd5b5061042c610f49565b005b34801561043a57600080fd5b50610455600480360381019061045091906126f3565b610fcd565b005b34801561046357600080fd5b5061046c6110ff565b60405161047991906128ac565b60405180910390f35b34801561048e57600080fd5b50610497611112565b005b3480156104a557600080fd5b506104ae6111d7565b6040516104bb919061242b565b60405180910390f35b3480156104d057600080fd5b506104eb60048036038101906104e6919061250b565b6111fd565b005b3480156104f957600080fd5b50610514600480360381019061050f91906126f3565b6112e9565b005b34801561052257600080fd5b5061052b611414565b604051610538919061294f565b60405180910390f35b34801561054d57600080fd5b50610568600480360381019061056391906124b2565b6114a2565b60405161057e9a99989796959493929190612971565b60405180910390f35b34801561059357600080fd5b5061059c611587565b005b3480156105aa57600080fd5b506105c560048036038101906105c09190612a0d565b6116cc565b6040516105d291906128ac565b60405180910390f35b3480156105e757600080fd5b5061060260048036038101906105fd9190612a4d565b611943565b60405161060f91906128ac565b60405180910390f35b34801561062457600080fd5b5061062d611b21565b60405161063a9190612393565b60405180910390f35b34801561064f57600080fd5b50610658611b29565b604051610665919061242b565b60405180910390f35b61068860048036038101906106839190612ac8565b611b4f565b6040516106959190612b95565b60405180910390f35b3480156106aa57600080fd5b506106c560048036038101906106c091906126f3565b611bbf565b6040516106d6959493929190612bb0565b60405180910390f35b3480156106eb57600080fd5b5061070660048036038101906107019190612c39565b611c02565b604051610713919061242b565b60405180910390f35b34801561072857600080fd5b50610731611c35565b005b34801561073f57600080fd5b50610748611d7a565b005b610764600480360381019061075f9190612c66565b611ebf565b60405161077191906128ac565b60405180910390f35b34801561078657600080fd5b506107a1600480360381019061079c9190612cd5565b611eeb565b6040516107ae91906128ac565b60405180910390f35b60055481565b600160009054906101000a900473ffffffffffffffffffffffffffffffffffffffff1681565b60008054906101000a900473ffffffffffffffffffffffffffffffffffffffff1681565b600080600c6000846bffffffffffffffffffffffff19166bffffffffffffffffffffffff1916815260200190815260200160002090506000600960008360080154815260200190815260200160002090506000826004015414156108a25780600101548160000154141561087e576000925061089d565b8060010154816000015411610894576002610897565b60015b60ff1692505b610a21565b6001826004015414156108d2578060010154816000015414156108c857600192506108cd565b600292505b610a20565b6002826004015414156109485781600501546108ff826001015483600001546121a690919063ffffffff16565b141561090e5760009250610943565b816005015461092e826001015483600001546121a690919063ffffffff16565b1161093a57600261093d565b60015b60ff1692505b610a1f565b6003826004015414156109b05781600501548160010154826000015461096e9190612d44565b141561097d57600092506109ab565b8160050154816001015482600001546109969190612d44565b136109a25760026109a5565b60015b60ff1692505b610a1e565b600482600401541415610a18578160050154816000015482600101546109d69190612d44565b14156109e55760009250610a13565b8160050154816000015482600101546109fe9190612d44565b13610a0a576002610a0d565b60015b60ff1692505b610a1d565b600080fd5b5b5b5b5b5050919050565b60008054906101000a900473ffffffffffffffffffffffffffffffffffffffff1673ffffffffffffffffffffffffffffffffffffffff163373ffffffffffffffffffffffffffffffffffffffff1614610a8057600080fd5b600073ffffffffffffffffffffffffffffffffffffffff168173ffffffffffffffffffffffffffffffffffffffff161415610aba57600080fd5b806000806101000a81548173ffffffffffffffffffffffffffffffffffffffff021916908373ffffffffffffffffffffffffffffffffffffffff16021790555050565b60008054906101000a900473ffffffffffffffffffffffffffffffffffffffff1673ffffffffffffffffffffffffffffffffffffffff163373ffffffffffffffffffffffffffffffffffffffff1614610b5557600080fd5b600073ffffffffffffffffffffffffffffffffffffffff168173ffffffffffffffffffffffffffffffffffffffff161415610b8f57600080fd5b80600260006101000a81548173ffffffffffffffffffffffffffffffffffffffff021916908373ffffffffffffffffffffffffffffffffffffffff16021790555050565b600260009054906101000a900473ffffffffffffffffffffffffffffffffffffffff1673ffffffffffffffffffffffffffffffffffffffff163373ffffffffffffffffffffffffffffffffffffffff161480610c7a575060008054906101000a900473ffffffffffffffffffffffffffffffffffffffff1673ffffffffffffffffffffffffffffffffffffffff163373ffffffffffffffffffffffffffffffffffffffff16145b80610cd25750600160009054906101000a900473ffffffffffffffffffffffffffffffffffffffff1673ffffffffffffffffffffffffffffffffffffffff163373ffffffffffffffffffffffffffffffffffffffff16145b610cdb57600080fd5b60001515600260149054906101000a900460ff16151514610cfb57600080fd5b8060069080519060200190610d11929190612260565b5050565b6060600080600080600060096000888152602001908152602001600020905080600501805480602002602001604051908101604052809291908181526020018280548015610d9e57602002820191906000526020600020905b8160009054906101000a900460601b6bffffffffffffffffffffffff191681526020019060010190808311610d6e575b50505050509550806002015494508060000154935080600101549250806003015491505091939590929450565b60008054906101000a900473ffffffffffffffffffffffffffffffffffffffff1673ffffffffffffffffffffffffffffffffffffffff163373ffffffffffffffffffffffffffffffffffffffff1614610e2357600080fd5b600260149054906101000a900460ff16610e3c57600080fd5b610e446121d2565b565b60088181548110610e5657600080fd5b906000526020600020016000915090505481565b60006001905090565b60008054906101000a900473ffffffffffffffffffffffffffffffffffffffff1673ffffffffffffffffffffffffffffffffffffffff163373ffffffffffffffffffffffffffffffffffffffff1614610ecb57600080fd5b600073ffffffffffffffffffffffffffffffffffffffff168173ffffffffffffffffffffffffffffffffffffffff161415610f0557600080fd5b80600160006101000a81548173ffffffffffffffffffffffffffffffffffffffff021916908373ffffffffffffffffffffffffffffffffffffffff16021790555050565b60008054906101000a900473ffffffffffffffffffffffffffffffffffffffff1673ffffffffffffffffffffffffffffffffffffffff163373ffffffffffffffffffffffffffffffffffffffff1614610fa157600080fd5b600260159054906101000a900460ff1615600260156101000a81548160ff021916908315150217905550565b600260009054906101000a900473ffffffffffffffffffffffffffffffffffffffff1673ffffffffffffffffffffffffffffffffffffffff163373ffffffffffffffffffffffffffffffffffffffff161480611074575060008054906101000a900473ffffffffffffffffffffffffffffffffffffffff1673ffffffffffffffffffffffffffffffffffffffff163373ffffffffffffffffffffffffffffffffffffffff16145b806110cc5750600160009054906101000a900473ffffffffffffffffffffffffffffffffffffffff1673ffffffffffffffffffffffffffffffffffffffff163373ffffffffffffffffffffffffffffffffffffffff16145b6110d557600080fd5b60001515600260149054906101000a900460ff161515146110f557600080fd5b8060058190555050565b600260149054906101000a900460ff1681565b600160009054906101000a900473ffffffffffffffffffffffffffffffffffffffff1673ffffffffffffffffffffffffffffffffffffffff163373ffffffffffffffffffffffffffffffffffffffff161461116c57600080fd5b600160009054906101000a900473ffffffffffffffffffffffffffffffffffffffff1673ffffffffffffffffffffffffffffffffffffffff166108fc479081150290604051600060405180830381858888f193505050501580156111d4573d6000803e3d6000fd5b50565b600760009054906101000a900473ffffffffffffffffffffffffffffffffffffffff1681565b60008054906101000a900473ffffffffffffffffffffffffffffffffffffffff1673ffffffffffffffffffffffffffffffffffffffff163373ffffffffffffffffffffffffffffffffffffffff161461125557600080fd5b600260149054906101000a900460ff1661126e57600080fd5b80600760006101000a81548173ffffffffffffffffffffffffffffffffffffffff021916908373ffffffffffffffffffffffffffffffffffffffff1602179055507f450db8da6efbe9c22f2347f7c2021231df1fc58d3ae9a2fa75d39fa446199305816040516112de919061242b565b60405180910390a150565b600260009054906101000a900473ffffffffffffffffffffffffffffffffffffffff1673ffffffffffffffffffffffffffffffffffffffff163373ffffffffffffffffffffffffffffffffffffffff161480611390575060008054906101000a900473ffffffffffffffffffffffffffffffffffffffff1673ffffffffffffffffffffffffffffffffffffffff163373ffffffffffffffffffffffffffffffffffffffff16145b806113e85750600160009054906101000a900473ffffffffffffffffffffffffffffffffffffffff1673ffffffffffffffffffffffffffffffffffffffff163373ffffffffffffffffffffffffffffffffffffffff16145b6113f157600080fd5b60001515600260149054906101000a900460ff1615151461141157600080fd5b50565b6006805461142190612da7565b80601f016020809104026020016040519081016040528092919081815260200182805461144d90612da7565b801561149a5780601f1061146f5761010080835404028352916020019161149a565b820191906000526020600020905b81548152906001019060200180831161147d57829003601f168201915b505050505081565b6000806000806000806000806000806000600c60008d6bffffffffffffffffffffffff19166bffffffffffffffffffffffff1916815260200190815260200160002090508060000160009054906101000a900473ffffffffffffffffffffffffffffffffffffffff169a508060010160009054906101000a900473ffffffffffffffffffffffffffffffffffffffff1699508060020154985080600301549750806006015496508060070154955080600401549450806005015493508060090160009054906101000a900460ff16925080600801549150509193959799509193959799565b600260009054906101000a900473ffffffffffffffffffffffffffffffffffffffff1673ffffffffffffffffffffffffffffffffffffffff163373ffffffffffffffffffffffffffffffffffffffff16148061162e575060008054906101000a900473ffffffffffffffffffffffffffffffffffffffff1673ffffffffffffffffffffffffffffffffffffffff163373ffffffffffffffffffffffffffffffffffffffff16145b806116865750600160009054906101000a900473ffffffffffffffffffffffffffffffffffffffff1673ffffffffffffffffffffffffffffffffffffffff163373ffffffffffffffffffffffffffffffffffffffff16145b61168f57600080fd5b60001515600260149054906101000a900460ff161515146116af57600080fd5b6001600260146101000a81548160ff021916908315150217905550565b6000801515600260149054906101000a900460ff161515146116ed57600080fd5b6000600c6000846bffffffffffffffffffffffff19166bffffffffffffffffffffffff191681526020019081526020016000209050600073ffffffffffffffffffffffffffffffffffffffff168160010160009054906101000a900473ffffffffffffffffffffffffffffffffffffffff1673ffffffffffffffffffffffffffffffffffffffff161461177f57600080fd5b3373ffffffffffffffffffffffffffffffffffffffff168160000160009054906101000a900473ffffffffffffffffffffffffffffffffffffffff1673ffffffffffffffffffffffffffffffffffffffff1614156117dc57600080fd5b6000600960008360080154815260200190815260200160002090508060040160009054906101000a900460ff168015611819575042816003015410155b8015611829575060018160020154105b61183257600080fd5b8160070154851461184257600080fd5b338260010160006101000a81548173ffffffffffffffffffffffffffffffffffffffff021916908373ffffffffffffffffffffffffffffffffffffffff160217905550836bffffffffffffffffffffffff19168260000160009054906101000a900473ffffffffffffffffffffffffffffffffffffffff1673ffffffffffffffffffffffffffffffffffffffff168360010160009054906101000a900473ffffffffffffffffffffffffffffffffffffffff1673ffffffffffffffffffffffffffffffffffffffff167ff0815ae53d163468ba78abdcd5d76d57994ad131a33a48942039f6a70af1611760405160405180910390a460019250505092915050565b6000600260009054906101000a900473ffffffffffffffffffffffffffffffffffffffff1673ffffffffffffffffffffffffffffffffffffffff163373ffffffffffffffffffffffffffffffffffffffff1614806119ec575060008054906101000a900473ffffffffffffffffffffffffffffffffffffffff1673ffffffffffffffffffffffffffffffffffffffff163373ffffffffffffffffffffffffffffffffffffffff16145b80611a445750600160009054906101000a900473ffffffffffffffffffffffffffffffffffffffff1673ffffffffffffffffffffffffffffffffffffffff163373ffffffffffffffffffffffffffffffffffffffff16145b611a4d57600080fd5b60001515600260149054906101000a900460ff16151514611a6d57600080fd5b60006009600088815260200190815260200160002090506003816002015410611a9557600080fd5b8581600001819055508481600101819055508381600201819055508060020154877fa26b6e7f3cb09b8e2af5c8311aacec9e8e9c925c5e56f12b0eca76bceaeab89d83600001548460010154604051611aef929190612dd9565b60405180910390a3611b1283604051806020016040528060008152506000611ebf565b50600191505095945050505050565b600047905090565b600260009054906101000a900473ffffffffffffffffffffffffffffffffffffffff1681565b6000801515600260149054906101000a900460ff16151514611b7057600080fd5b600087118015611b805750600086115b611b8957600080fd5b6001881480611b985750600288145b611ba157600080fd5b620186a08410611bb057600080fd5b60009050979650505050505050565b60096020528060005260406000206000915090508060000154908060010154908060020154908060030154908060040160009054906101000a900460ff16905085565b600a6020528060005260406000206000915054906101000a900473ffffffffffffffffffffffffffffffffffffffff1681565b600260009054906101000a900473ffffffffffffffffffffffffffffffffffffffff1673ffffffffffffffffffffffffffffffffffffffff163373ffffffffffffffffffffffffffffffffffffffff161480611cdc575060008054906101000a900473ffffffffffffffffffffffffffffffffffffffff1673ffffffffffffffffffffffffffffffffffffffff163373ffffffffffffffffffffffffffffffffffffffff16145b80611d345750600160009054906101000a900473ffffffffffffffffffffffffffffffffffffffff1673ffffffffffffffffffffffffffffffffffffffff163373ffffffffffffffffffffffffffffffffffffffff16145b611d3d57600080fd5b60001515600260149054906101000a900460ff16151514611d5d57600080fd5b6000600260156101000a81548160ff021916908315150217905550565b600260009054906101000a900473ffffffffffffffffffffffffffffffffffffffff1673ffffffffffffffffffffffffffffffffffffffff163373ffffffffffffffffffffffffffffffffffffffff161480611e21575060008054906101000a900473ffffffffffffffffffffffffffffffffffffffff1673ffffffffffffffffffffffffffffffffffffffff163373ffffffffffffffffffffffffffffffffffffffff16145b80611e795750600160009054906101000a900473ffffffffffffffffffffffffffffffffffffffff1673ffffffffffffffffffffffffffffffffffffffff163373ffffffffffffffffffffffffffffffffffffffff16145b611e8257600080fd5b60001515600260149054906101000a900460ff16151514611ea257600080fd5b6001600260156101000a81548160ff021916908315150217905550565b6000801515600260149054906101000a900460ff16151514611ee057600080fd5b600190509392505050565b6000600260009054906101000a900473ffffffffffffffffffffffffffffffffffffffff1673ffffffffffffffffffffffffffffffffffffffff163373ffffffffffffffffffffffffffffffffffffffff161480611f94575060008054906101000a900473ffffffffffffffffffffffffffffffffffffffff1673ffffffffffffffffffffffffffffffffffffffff163373ffffffffffffffffffffffffffffffffffffffff16145b80611fec5750600160009054906101000a900473ffffffffffffffffffffffffffffffffffffffff1673ffffffffffffffffffffffffffffffffffffffff163373ffffffffffffffffffffffffffffffffffffffff16145b611ff557600080fd5b60001515600260149054906101000a900460ff1615151461201557600080fd5b600015156009600085815260200190815260200160002060040160009054906101000a900460ff1615151461204957600080fd5b60006040518060c00160405280600081526020016000815260200160008152602001848152602001600115158152602001600067ffffffffffffffff81111561209557612094612553565b5b6040519080825280602002602001820160405280156120c35781602001602082028036833780820191505090505b508152509050600884908060018154018082558091505060019003906000526020600020016000909190919091505580600960008681526020019081526020016000206000820151816000015560208201518160010155604082015181600201556060820151816003015560808201518160040160006101000a81548160ff02191690831515021790555060a082015181600501908051906020019061216a9291906122e6565b50905050837fe9cebc8c00bdd74535359d968d5b44b432519cbb416612a0b070ab5edf8e32f760405160405180910390a2600191505092915050565b60008082846121b59190612e02565b9050838110156121c8576121c7612e58565b5b8091505092915050565b60008054906101000a900473ffffffffffffffffffffffffffffffffffffffff1673ffffffffffffffffffffffffffffffffffffffff163373ffffffffffffffffffffffffffffffffffffffff161461222a57600080fd5b600260149054906101000a900460ff1661224357600080fd5b6000600260146101000a81548160ff021916908315150217905550565b82805461226c90612da7565b90600052602060002090601f01602090048101928261228e57600085556122d5565b82601f106122a757805160ff19168380011785556122d5565b828001600101855582156122d5579182015b828111156122d45782518255916020019190600101906122b9565b5b5090506122e2919061235d565b5090565b82805482825590600052602060002090810192821561234c579160200282015b8281111561234b5782518260006101000a81548173ffffffffffffffffffffffffffffffffffffffff021916908360601c021790555091602001919060010190612306565b5b509050612359919061235d565b5090565b5b8082111561237657600081600090555060010161235e565b5090565b6000819050919050565b61238d8161237a565b82525050565b60006020820190506123a86000830184612384565b92915050565b600073ffffffffffffffffffffffffffffffffffffffff82169050919050565b60006123d9826123ae565b9050919050565b6123e9816123ce565b82525050565b600060208201905061240460008301846123e0565b92915050565b6000612415826123ae565b9050919050565b6124258161240a565b82525050565b6000602082019050612440600083018461241c565b92915050565b6000604051905090565b600080fd5b600080fd5b60007fffffffffffffffffffffffffffffffffffffffff00000000000000000000000082169050919050565b61248f8161245a565b811461249a57600080fd5b50565b6000813590506124ac81612486565b92915050565b6000602082840312156124c8576124c7612450565b5b60006124d68482850161249d565b91505092915050565b6124e88161240a565b81146124f357600080fd5b50565b600081359050612505816124df565b92915050565b60006020828403121561252157612520612450565b5b600061252f848285016124f6565b91505092915050565b600080fd5b600080fd5b6000601f19601f8301169050919050565b7f4e487b7100000000000000000000000000000000000000000000000000000000600052604160045260246000fd5b61258b82612542565b810181811067ffffffffffffffff821117156125aa576125a9612553565b5b80604052505050565b60006125bd612446565b90506125c98282612582565b919050565b600067ffffffffffffffff8211156125e9576125e8612553565b5b6125f282612542565b9050602081019050919050565b82818337600083830152505050565b600061262161261c846125ce565b6125b3565b90508281526020810184848401111561263d5761263c61253d565b5b6126488482856125ff565b509392505050565b600082601f83011261266557612664612538565b5b813561267584826020860161260e565b91505092915050565b60006020828403121561269457612693612450565b5b600082013567ffffffffffffffff8111156126b2576126b1612455565b5b6126be84828501612650565b91505092915050565b6126d08161237a565b81146126db57600080fd5b50565b6000813590506126ed816126c7565b92915050565b60006020828403121561270957612708612450565b5b6000612717848285016126de565b91505092915050565b600081519050919050565b600082825260208201905092915050565b6000819050602082019050919050565b6127558161245a565b82525050565b6000612767838361274c565b60208301905092915050565b6000602082019050919050565b600061278b82612720565b612795818561272b565b93506127a08361273c565b8060005b838110156127d15781516127b8888261275b565b97506127c383612773565b9250506001810190506127a4565b5085935050505092915050565b600060a08201905081810360008301526127f88188612780565b90506128076020830187612384565b6128146040830186612384565b6128216060830185612384565b61282e6080830184612384565b9695505050505050565b612841816123ce565b811461284c57600080fd5b50565b60008135905061285e81612838565b92915050565b60006020828403121561287a57612879612450565b5b60006128888482850161284f565b91505092915050565b60008115159050919050565b6128a681612891565b82525050565b60006020820190506128c1600083018461289d565b92915050565b600081519050919050565b600082825260208201905092915050565b60005b838110156129015780820151818401526020810190506128e6565b83811115612910576000848401525b50505050565b6000612921826128c7565b61292b81856128d2565b935061293b8185602086016128e3565b61294481612542565b840191505092915050565b600060208201905081810360008301526129698184612916565b905092915050565b600061014082019050612987600083018d61241c565b612994602083018c61241c565b6129a1604083018b612384565b6129ae606083018a612384565b6129bb6080830189612384565b6129c860a0830188612384565b6129d560c0830187612384565b6129e260e0830186612384565b6129f061010083018561289d565b6129fe610120830184612384565b9b9a5050505050505050505050565b60008060408385031215612a2457612a23612450565b5b6000612a32858286016126de565b9250506020612a438582860161249d565b9150509250929050565b600080600080600060a08688031215612a6957612a68612450565b5b6000612a77888289016126de565b9550506020612a88888289016126de565b9450506040612a99888289016126de565b9350506060612aaa888289016126de565b9250506080612abb8882890161249d565b9150509295509295909350565b600080600080600080600060e0888a031215612ae757612ae6612450565b5b6000612af58a828b016126de565b9750506020612b068a828b016126de565b9650506040612b178a828b016126de565b9550506060612b288a828b016126de565b9450506080612b398a828b016126de565b93505060a0612b4a8a828b016126de565b92505060c088013567ffffffffffffffff811115612b6b57612b6a612455565b5b612b778a828b01612650565b91505092959891949750929550565b612b8f8161245a565b82525050565b6000602082019050612baa6000830184612b86565b92915050565b600060a082019050612bc56000830188612384565b612bd26020830187612384565b612bdf6040830186612384565b612bec6060830185612384565b612bf9608083018461289d565b9695505050505050565b6000819050919050565b612c1681612c03565b8114612c2157600080fd5b50565b600081359050612c3381612c0d565b92915050565b600060208284031215612c4f57612c4e612450565b5b6000612c5d84828501612c24565b91505092915050565b600080600060608486031215612c7f57612c7e612450565b5b6000612c8d8682870161249d565b935050602084013567ffffffffffffffff811115612cae57612cad612455565b5b612cba86828701612650565b9250506040612ccb868287016126de565b9150509250925092565b60008060408385031215612cec57612ceb612450565b5b6000612cfa858286016126de565b9250506020612d0b858286016126de565b9150509250929050565b7f4e487b7100000000000000000000000000000000000000000000000000000000600052601160045260246000fd5b6000612d4f8261237a565b9150612d5a8361237a565b925082821015612d6d57612d6c612d15565b5b828203905092915050565b7f4e487b7100000000000000000000000000000000000000000000000000000000600052602260045260246000fd5b60006002820490506001821680612dbf57607f821691505b60208210811415612dd357612dd2612d78565b5b50919050565b6000604082019050612dee6000830185612384565b612dfb6020830184612384565b9392505050565b6000612e0d8261237a565b9150612e188361237a565b9250827fffffffffffffffffffffffffffffffffffffffffffffffffffffffffffffffff03821115612e4d57612e4c612d15565b5b828201905092915050565b7f4e487b7100000000000000000000000000000000000000000000000000000000600052600160045260246000fdfea2646970667358221220370438505fbd3f75c0629cbfe6454de4f9f06295fb1848f9614385b72664c0a364736f6c63430008090033",
  "immutableReferences": {},
  "source": "pragma solidity ^0.8.4;\n\n\nimport \"./BetOracle.sol\";\nimport \"./SafeMath.sol\";\n\n/*\nBetCore.sol will be the most derived contract of the contract inheritance tree.\nThis means that when deploying, BetCore.sol should be the only file deployed to the network\nThis file sets privileged addresses within the constructor, in addition to instantiating the Bet Token contract\nAll functions relating to reading data (wager, match, user) are contained here\nAll functions relating to CRUD operations for Wagers are contained here (create, accept, settle).\n*/\ncontract BetCore is BetOracle {\n\n    using SafeMath for uint256;\n\n    constructor() public payable {\n        //FOR PRIVATE TESTNET ONLY (ethereum-bridge OAR requirement)\n        //OAR = OraclizeAddrResolverI(0x6f485C8BF6fc43eA212E93BBF8ce046C7f1cb475);//add this line if you are using Oraclize in private chain environment\n\n        // Starts paused.  ******** XXX CHANGE TO TRUE BEFORE DEPLOYING TO MAIN NET ************\n        //paused = false;\n        // the creator of the contract is the initial CEO\n        ceoAddress = msg.sender;\n        // the creator of the contract is also the initial COO\n        cooAddress = msg.sender;\n        //set oraclize gas price to 2Gwei\n        //setOraclizeGasPrice(2000000000);\n        //getMatchResults();\n    }\n\n    // fallback function for sending ether to this.balance (for oraclize transactions)\n    fallback() external payable {}\n\n    /// @dev Override unpause so it requires all external contract addresses\n    ///  to be set before contract can be unpaused. Also, we can't have\n    ///  newContractAddress set either, because then the contract was upgraded.\n    function unpause()\n        public\n        onlyCEO\n        whenPaused\n        override\n    {\n        // Actually unpause the contract.\n        super.unpause();\n    }\n\n    function setNewAddress(address _v2Address)\n        public\n        onlyCEO\n        whenPaused\n    {\n        // See README.md for updgrade plan\n        newContractAddress = _v2Address;\n        emit ContractUpgrade(_v2Address);\n    }\n\n    /// how much ether does this contract hold?\n    function etherBalance()\n        public\n        view\n        returns (uint)\n    {\n        return address(this).balance;\n    }\n\n    function pauseQueries()\n        public\n        onlyCEO\n    {\n        queriesArePaused = !queriesArePaused;\n    }\n\n    /// @notice Returns all the relevant information about a specific Match.\n    function getMatch(uint matchId)\n        public\n        view\n        returns (\n        bytes20[] memory wagerIds, //an array of all wagerIds belonging to this match\n        uint status, //status as provided by opta 0, 1, 2, 3, or 4\n        uint home, // score of the home team\n        uint away, // score of the away team\n        uint startTime  // time (in unix epoch time) when match begins\n    ) {\n        Match storage gotMatch = matchStructsById[matchId];\n\n        wagerIds = gotMatch.wagerIds;\n        status = gotMatch.status;\n        home = gotMatch.home;\n        away = gotMatch.away;\n        startTime = gotMatch.startTime;\n    }\n\n    /// @notice Returns all the relevant information about a specific Wager.\n    function getWager(bytes20 _wagerId)\n        public\n        view\n        returns (\n        address creator, //address of creator.\n        address taker, //address of taker\n        uint creatorSide, //side of wager chosen by creator  1 == home, 2 == away, 3 == draw\n        uint takerSide, //side of wager chosen by taker, 1 == home, 2 == away, 3 == draw\n        uint256 creatorRisk, //tokens risked by creator of wager\n        uint256 takerRisk,\n        uint wagerType, //either 0, 1, 2 for straight team vs team, draw vs no-draw, or over vs under\n        uint spread, //as of now (4/4/2018), spread only is used if wagerType=0.  Else, spread is unused.\n        bool isSettled, // has this match been settled\n        uint matchId // what match does this wager belong to?\n    ) {\n        Wager storage wager = wagers[_wagerId];\n\n        creator = wager.creator;\n        taker = wager.taker;\n        creatorSide = wager.creatorSide;\n        takerSide = wager.takerSide;\n        creatorRisk = wager.creatorRisk;\n        takerRisk = wager.takerRisk;\n        wagerType = wager.wagerType;\n        spread = wager.spread;\n        isSettled = wager.isSettled;\n        matchId = wager.matchId;\n    }\n\n    /// @dev A public method that creates a new wager and stores it\n    function createWager(\n        uint _creatorSide, //can be 1 (home, draw, or over) or 2 (away, no-draw, under)\n        uint256 _creatorRisk, //amount creator wishes to risk on the wager\n        uint256 _takerRisk,  //amount creator sets for the taker, based on odds set by creator in the front-end\n        uint _wagerType, //either 0, 1, 2.  wagerType will dictate what \"creatorSide\" and \"takerSide\" represent\n        uint _spread, // _spread > 0, and will only be applied if _wagerType=2\n        uint matchId, // what match does this wager belong to\n        string memory sport //only used if a new match must be created\n    )\n        public\n        payable\n        whenNotPaused\n        returns (bytes20)\n    {\n        require(_creatorRisk > 0 && _takerRisk > 0);\n        require(_creatorSide == 1 || _creatorSide == 2);\n        require(_spread < 100000);\n\n        // Wager memory _wager = Wager({\n        //     creator: msg.sender,\n        //     taker: address(0),\n        //     creatorSide: _creatorSide,\n        //     takerSide: _creatorSide == 1 ? 2 : 1,\n        //     wagerType: _wagerType,\n        //     spread: _spread,\n        //     creatorRisk: _creatorRisk,\n        //     takerRisk: _takerRisk,\n        //     matchId: matchId,\n        //     isSettled: false\n        // });\n\n        // //add this wager object to the array of Wager structs within the matchStructsByContractId storage\n        // bytes20 newWagerId = createUniqueId(msg.sender);\n        // wagers[newWagerId] = _wager;\n\n        // Match storage gotMatch = matchStructsById[matchId];\n        // //only attempt to create if match is not yet created.\n        // if(!gotMatch.created) {\n        //   if (oraclize_getPrice(\"URL\", 100000) > msg.value || oraclize_getPrice(\"URL\", 2000000) < msg.value) {\n        //       emit LogNewOraclizeQuery(\"Query fee was either too low or too high. \");\n        //       revert();\n        //   } else {\n        //       createFirstWagerOfMatch(newWagerId, sport, matchId);\n        //   }\n        // } else {\n        //    // make sure match exists and hasnt started and has a status of 0\n        //   require(gotMatch.created && gotMatch.startTime >= now && gotMatch.status < 1);\n\n        //   gotMatch.wagerIds.push(newWagerId);\n        // }\n        // //THE ONLY DANGER HERE IS IF THE USER ATTEMPTS TO CREATE A WAGER FOR A MATCH WHICH DOESNT EXIST,\n        // //AND A QUERY IS MADE TO THE API TO RETRIEVE AND ATTEMPT TO CREATE THAT MATCH\n        // //AND THE RESPONSE IS A 500/ERROR, THE INITAL WAGER CREATION/TOKEN TRANSFER WILL COMPLETE SUCCESSFULLY\n        // //THOUGH THE WAGER WILL NOT BE ASSIGNED TO A VALID MATCH\n\n        // ///FIX\n        // //require(rToken.transferToSportsContract(msg.sender, _creatorRisk)); //make sure token transfer succeeds\n\n        // // emit the wager creation event\n        // emit NewWagerCreated(\n        //     _wager.creator,\n        //     matchId,\n        //     newWagerId,\n        //     _wagerType\n        // );\n\n        return \"\";\n    }\n\n    /// called by a user who wishes to accept a wager which has been created by another user\n    function acceptWager(\n        uint256 _amountToRisk,\n        bytes20 _wagerId // the id of the wager the user wants to accept\n    )\n        public\n        whenNotPaused\n        returns (bool)\n    {\n        Wager storage wager = wagers[_wagerId];\n        require(wager.taker == address(0)); //bet must not be taken.\n        require(wager.creator != msg.sender); //creator must not be address who accepts the wager\n        //require(_amountToRisk > 0);\n\n        Match storage gotMatch = matchStructsById[wager.matchId]; //locate matchId from Wager in storage\n        // make sure match exists and hasnt started and has a status of 0\n        require(gotMatch.created && gotMatch.startTime >= block.timestamp && gotMatch.status < 1);\n\n        require(_amountToRisk == wager.takerRisk);\n        //require(_amountToProfit == wager.creatorRisk);\n        //if this is a straight bet, add msg.sender address to 'taker' field, and add tokens to\n        wager.taker = msg.sender;\n\n        //XXX FIX\n        //require(rToken.transferToSportsContract(msg.sender, _amountToRisk)); //make sure token transfer succeeds\n\n        emit WagerAccepted(\n            wager.taker,\n            wager.creator,\n            _wagerId\n        );\n\n        return true;\n    }\n\n    /**\n    * @dev Creates a new blob. It is guaranteed that different users will never receive the same blobId, even before consensus has been reached. This prevents blobId sniping. Consider createWithNonce() if not calling from another contract.\n    */\n    function createUniqueId(address creator)\n        internal\n        returns (bytes20)\n    {\n        // Generate the blobId.\n        bytes20 blobId = \"\";\n        return blobId;\n    }\n}",
  "sourcePath": "/home/z/code/react-decentralized-betting/contracts/BetCore.sol",
  "compiler": {
    "name": "solc",
    "version": "0.8.9+commit.e5eed63a.Emscripten.clang"
  },
  "schemaVersion": "3.4.3",
  "updatedAt": "2021-10-22T13:20:45.907Z",
  "networkType": "ethereum",
  "devdoc": {
    "kind": "dev",
    "methods": {
      "createWager(uint256,uint256,uint256,uint256,uint256,uint256,string)": {
        "details": "A public method that creates a new wager and stores it"
      },
      "pause()": {
        "details": "Called by any \"C-level\" role to pause the contract. Used only when  a bug or exploit is detected and we need to limit damage."
      },
      "setCEO(address)": {
        "details": "Assigns a new address to act as the CEO. Only available to the current CEO.",
        "params": {
          "_newCEO": "The address of the new CEO"
        }
      },
      "setCFO(address)": {
        "details": "Assigns a new address to act as the CFO. Only available to the current CEO.",
        "params": {
          "_newCFO": "The address of the new CFO"
        }
      },
      "setCOO(address)": {
        "details": "Assigns a new address to act as the COO. Only available to the current CEO.",
        "params": {
          "_newCOO": "The address of the new COO"
        }
      },
      "unpause()": {
        "details": "Override unpause so it requires all external contract addresses  to be set before contract can be unpaused. Also, we can't have  newContractAddress set either, because then the contract was upgraded."
      }
    },
    "version": 1
  },
  "userdoc": {
    "kind": "user",
    "methods": {
      "acceptWager(uint256,bytes20)": {
        "notice": "called by a user who wishes to accept a wager which has been created by another user"
      },
      "createMatch(uint256,uint256)": {
        "notice": "creates a match if a new match is received from oracle/opta api callback"
      },
      "etherBalance()": {
        "notice": "how much ether does this contract hold?"
      },
      "getMatch(uint256)": {
        "notice": "Returns all the relevant information about a specific Match."
      },
      "getWager(bytes20)": {
        "notice": "Returns all the relevant information about a specific Wager."
      },
      "matches(uint256)": {
        "notice": "a string array which records total count of matches."
      }
    },
    "version": 1
  }
}