{
  "contractName": "BetOracle",
  "abi": [
    {
      "anonymous": false,
      "inputs": [
        {
          "indexed": false,
          "internalType": "address",
          "name": "newContract",
          "type": "address"
        }
      ],
      "name": "ContractUpgrade",
      "type": "event"
    },
    {
      "anonymous": false,
      "inputs": [
        {
          "indexed": false,
          "internalType": "string",
          "name": "description",
          "type": "string"
        }
      ],
      "name": "LogMatchResultUpdate",
      "type": "event"
    },
    {
      "anonymous": false,
      "inputs": [
        {
          "indexed": false,
          "internalType": "string",
          "name": "description",
          "type": "string"
        }
      ],
      "name": "LogNewOraclizeQuery",
      "type": "event"
    },
    {
      "anonymous": false,
      "inputs": [
        {
          "indexed": false,
          "internalType": "bytes32",
          "name": "queryId",
          "type": "bytes32"
        }
      ],
      "name": "LogQueryId",
      "type": "event"
    },
    {
      "anonymous": false,
      "inputs": [
        {
          "indexed": true,
          "internalType": "uint256",
          "name": "matchId",
          "type": "uint256"
        },
        {
          "indexed": false,
          "internalType": "uint256",
          "name": "home",
          "type": "uint256"
        },
        {
          "indexed": false,
          "internalType": "uint256",
          "name": "away",
          "type": "uint256"
        },
        {
          "indexed": true,
          "internalType": "uint256",
          "name": "status",
          "type": "uint256"
        }
      ],
      "name": "MatchUpdated",
      "type": "event"
    },
    {
      "anonymous": false,
      "inputs": [
        {
          "indexed": true,
          "internalType": "uint256",
          "name": "matchId",
          "type": "uint256"
        }
      ],
      "name": "NewMatchCreated",
      "type": "event"
    },
    {
      "anonymous": false,
      "inputs": [
        {
          "indexed": true,
          "internalType": "address",
          "name": "creator",
          "type": "address"
        },
        {
          "indexed": true,
          "internalType": "uint256",
          "name": "matchId",
          "type": "uint256"
        },
        {
          "indexed": false,
          "internalType": "bytes20",
          "name": "wagerId",
          "type": "bytes20"
        },
        {
          "indexed": false,
          "internalType": "uint256",
          "name": "wagerType",
          "type": "uint256"
        }
      ],
      "name": "NewWagerCreated",
      "type": "event"
    },
    {
      "anonymous": false,
      "inputs": [
        {
          "indexed": false,
          "internalType": "string",
          "name": "description",
          "type": "string"
        },
        {
          "indexed": false,
          "internalType": "address",
          "name": "addr",
          "type": "address"
        }
      ],
      "name": "UpdateAddress",
      "type": "event"
    },
    {
      "anonymous": false,
      "inputs": [
        {
          "indexed": true,
          "internalType": "address",
          "name": "sender",
          "type": "address"
        },
        {
          "indexed": true,
          "internalType": "address",
          "name": "creator",
          "type": "address"
        },
        {
          "indexed": true,
          "internalType": "bytes20",
          "name": "wagerId",
          "type": "bytes20"
        }
      ],
      "name": "WagerAccepted",
      "type": "event"
    },
    {
      "anonymous": false,
      "inputs": [
        {
          "indexed": true,
          "internalType": "bytes20",
          "name": "wagerId",
          "type": "bytes20"
        },
        {
          "indexed": true,
          "internalType": "uint256",
          "name": "matchId",
          "type": "uint256"
        }
      ],
      "name": "WagerSettled",
      "type": "event"
    },
    {
      "inputs": [],
      "name": "ceoAddress",
      "outputs": [
        {
          "internalType": "address",
          "name": "",
          "type": "address"
        }
      ],
      "stateMutability": "view",
      "type": "function"
    },
    {
      "inputs": [],
      "name": "cfoAddress",
      "outputs": [
        {
          "internalType": "address payable",
          "name": "",
          "type": "address"
        }
      ],
      "stateMutability": "view",
      "type": "function"
    },
    {
      "inputs": [],
      "name": "cooAddress",
      "outputs": [
        {
          "internalType": "address",
          "name": "",
          "type": "address"
        }
      ],
      "stateMutability": "view",
      "type": "function"
    },
    {
      "inputs": [
        {
          "internalType": "uint256",
          "name": "",
          "type": "uint256"
        }
      ],
      "name": "matchStructsById",
      "outputs": [
        {
          "internalType": "uint256",
          "name": "home",
          "type": "uint256"
        },
        {
          "internalType": "uint256",
          "name": "away",
          "type": "uint256"
        },
        {
          "internalType": "uint256",
          "name": "status",
          "type": "uint256"
        },
        {
          "internalType": "uint256",
          "name": "startTime",
          "type": "uint256"
        },
        {
          "internalType": "bool",
          "name": "created",
          "type": "bool"
        }
      ],
      "stateMutability": "view",
      "type": "function"
    },
    {
      "inputs": [
        {
          "internalType": "uint256",
          "name": "",
          "type": "uint256"
        }
      ],
      "name": "matches",
      "outputs": [
        {
          "internalType": "uint256",
          "name": "",
          "type": "uint256"
        }
      ],
      "stateMutability": "view",
      "type": "function"
    },
    {
      "inputs": [],
      "name": "newContractAddress",
      "outputs": [
        {
          "internalType": "address",
          "name": "",
          "type": "address"
        }
      ],
      "stateMutability": "view",
      "type": "function"
    },
    {
      "inputs": [],
      "name": "oracleDataSourceUrl",
      "outputs": [
        {
          "internalType": "string",
          "name": "",
          "type": "string"
        }
      ],
      "stateMutability": "view",
      "type": "function"
    },
    {
      "inputs": [],
      "name": "oracleGasLimit",
      "outputs": [
        {
          "internalType": "uint256",
          "name": "",
          "type": "uint256"
        }
      ],
      "stateMutability": "view",
      "type": "function"
    },
    {
      "inputs": [],
      "name": "pause",
      "outputs": [],
      "stateMutability": "nonpayable",
      "type": "function"
    },
    {
      "inputs": [],
      "name": "paused",
      "outputs": [
        {
          "internalType": "bool",
          "name": "",
          "type": "bool"
        }
      ],
      "stateMutability": "view",
      "type": "function"
    },
    {
      "inputs": [
        {
          "internalType": "address",
          "name": "_newCEO",
          "type": "address"
        }
      ],
      "name": "setCEO",
      "outputs": [],
      "stateMutability": "nonpayable",
      "type": "function"
    },
    {
      "inputs": [
        {
          "internalType": "address payable",
          "name": "_newCFO",
          "type": "address"
        }
      ],
      "name": "setCFO",
      "outputs": [],
      "stateMutability": "nonpayable",
      "type": "function"
    },
    {
      "inputs": [
        {
          "internalType": "address",
          "name": "_newCOO",
          "type": "address"
        }
      ],
      "name": "setCOO",
      "outputs": [],
      "stateMutability": "nonpayable",
      "type": "function"
    },
    {
      "inputs": [],
      "name": "unpause",
      "outputs": [],
      "stateMutability": "nonpayable",
      "type": "function"
    },
    {
      "inputs": [
        {
          "internalType": "bytes32",
          "name": "",
          "type": "bytes32"
        }
      ],
      "name": "validQueryIds",
      "outputs": [
        {
          "internalType": "address",
          "name": "",
          "type": "address"
        }
      ],
      "stateMutability": "view",
      "type": "function"
    },
    {
      "inputs": [],
      "name": "withdrawBalance",
      "outputs": [],
      "stateMutability": "nonpayable",
      "type": "function"
    },
    {
      "inputs": [],
      "name": "pauseQuery",
      "outputs": [],
      "stateMutability": "nonpayable",
      "type": "function"
    },
    {
      "inputs": [],
      "name": "unPauseQuery",
      "outputs": [],
      "stateMutability": "nonpayable",
      "type": "function"
    },
    {
      "inputs": [
        {
          "internalType": "uint256",
          "name": "newGasPrice",
          "type": "uint256"
        }
      ],
      "name": "setOraclizeGasPrice",
      "outputs": [],
      "stateMutability": "nonpayable",
      "type": "function"
    },
    {
      "inputs": [],
      "name": "getGasCostForValidation",
      "outputs": [
        {
          "internalType": "uint256",
          "name": "",
          "type": "uint256"
        }
      ],
      "stateMutability": "nonpayable",
      "type": "function"
    },
    {
      "inputs": [
        {
          "internalType": "uint256",
          "name": "newGasLimit",
          "type": "uint256"
        }
      ],
      "name": "updateOraclizeGasLimit",
      "outputs": [],
      "stateMutability": "nonpayable",
      "type": "function"
    },
    {
      "inputs": [
        {
          "internalType": "string",
          "name": "newUrl",
          "type": "string"
        }
      ],
      "name": "updateOracleDataSourceUrl",
      "outputs": [],
      "stateMutability": "nonpayable",
      "type": "function"
    },
    {
      "inputs": [
        {
          "internalType": "uint256",
          "name": "matchId",
          "type": "uint256"
        },
        {
          "internalType": "uint256",
          "name": "startTime",
          "type": "uint256"
        }
      ],
      "name": "createMatch",
      "outputs": [
        {
          "internalType": "bool",
          "name": "",
          "type": "bool"
        }
      ],
      "stateMutability": "nonpayable",
      "type": "function"
    },
    {
      "inputs": [
        {
          "internalType": "uint256",
          "name": "matchId",
          "type": "uint256"
        },
        {
          "internalType": "uint256",
          "name": "home",
          "type": "uint256"
        },
        {
          "internalType": "uint256",
          "name": "away",
          "type": "uint256"
        },
        {
          "internalType": "uint256",
          "name": "status",
          "type": "uint256"
        },
        {
          "internalType": "bytes20",
          "name": "wagerId",
          "type": "bytes20"
        }
      ],
      "name": "updateMatch",
      "outputs": [
        {
          "internalType": "bool",
          "name": "",
          "type": "bool"
        }
      ],
      "stateMutability": "nonpayable",
      "type": "function"
    },
    {
      "inputs": [
        {
          "internalType": "bytes20",
          "name": "wagerId",
          "type": "bytes20"
        },
        {
          "internalType": "string",
          "name": "sport",
          "type": "string"
        },
        {
          "internalType": "uint256",
          "name": "matchId",
          "type": "uint256"
        }
      ],
      "name": "settleWager",
      "outputs": [
        {
          "internalType": "bool",
          "name": "",
          "type": "bool"
        }
      ],
      "stateMutability": "payable",
      "type": "function"
    },
    {
      "inputs": [
        {
          "internalType": "bytes20",
          "name": "wagerId",
          "type": "bytes20"
        }
      ],
      "name": "determineWagerResult",
      "outputs": [
        {
          "internalType": "uint256",
          "name": "matchResult",
          "type": "uint256"
        }
      ],
      "stateMutability": "nonpayable",
      "type": "function"
    }
  ],
  "bytecode": "0x60806040526000600260146101000a81548160ff0219169083151502179055506000600260156101000a81548160ff02191690831515021790555060616003556000600460006101000a81548160ff02191690831515021790555062061a806005556040518060400160405280600381526020017f746264000000000000000000000000000000000000000000000000000000000081525060069080519060200190620000ae929190620000c3565b50348015620000bc57600080fd5b50620001d8565b828054620000d190620001a2565b90600052602060002090601f016020900481019282620000f5576000855562000141565b82601f106200011057805160ff191683800117855562000141565b8280016001018555821562000141579182015b828111156200014057825182559160200191906001019062000123565b5b50905062000150919062000154565b5090565b5b808211156200016f57600081600090555060010162000155565b5090565b7f4e487b7100000000000000000000000000000000000000000000000000000000600052602260045260246000fd5b60006002820490506001821680620001bb57607f821691505b60208210811415620001d257620001d162000173565b5b50919050565b61239e80620001e86000396000f3fe6080604052600436106101815760003560e01c80635fd8c710116100d1578063b047fb501161008a578063c7b09dce11610064578063c7b09dce1461054e578063cc2807da14610565578063d6ddc67e1461057c578063f5a0ea6c146105ac57610181565b8063b047fb50146104a5578063be1b9977146104d0578063c67120501461051157610181565b80635fd8c710146103bb5780636af04a57146103d257806371c82c14146103fd57806374e5741e146104265780638456cb5914610451578063a5e96e481461046857610181565b80633aa808801161013e5780634d601639116101185780634d601639146103135780634e0a33791461033e5780635b6f0b1e146103675780635c975abb1461039057610181565b80633aa80880146102965780633f4ba83a146102bf5780634768d4ef146102d657610181565b806305121bd3146101865780630519ce79146101b15780630a0f8168146101dc5780631885f4881461020757806327d7874c146102445780632ba73c151461026d575b600080fd5b34801561019257600080fd5b5061019b6105e9565b6040516101a89190611b50565b60405180910390f35b3480156101bd57600080fd5b506101c66105ef565b6040516101d39190611bac565b60405180910390f35b3480156101e857600080fd5b506101f1610615565b6040516101fe9190611be8565b60405180910390f35b34801561021357600080fd5b5061022e60048036038101906102299190611c6f565b610639565b60405161023b9190611b50565b60405180910390f35b34801561025057600080fd5b5061026b60048036038101906102669190611cc8565b61085a565b005b34801561027957600080fd5b50610294600480360381019061028f9190611cc8565b61092f565b005b3480156102a257600080fd5b506102bd60048036038101906102b89190611e3b565b610a05565b005b3480156102cb57600080fd5b506102d4610b47565b005b3480156102e257600080fd5b506102fd60048036038101906102f89190611eb0565b610bd5565b60405161030a9190611b50565b60405180910390f35b34801561031f57600080fd5b50610328610bf9565b6040516103359190611b50565b60405180910390f35b34801561034a57600080fd5b5061036560048036038101906103609190611f09565b610c02565b005b34801561037357600080fd5b5061038e60048036038101906103899190611eb0565b610cd8565b005b34801561039c57600080fd5b506103a5610e0a565b6040516103b29190611f51565b60405180910390f35b3480156103c757600080fd5b506103d0610e1d565b005b3480156103de57600080fd5b506103e7610ee2565b6040516103f49190611be8565b60405180910390f35b34801561040957600080fd5b50610424600480360381019061041f9190611eb0565b610f08565b005b34801561043257600080fd5b5061043b611033565b6040516104489190611ff4565b60405180910390f35b34801561045d57600080fd5b506104666110c1565b005b34801561047457600080fd5b5061048f600480360381019061048a9190612016565b611206565b60405161049c9190611f51565b60405180910390f35b3480156104b157600080fd5b506104ba6113e4565b6040516104c79190611be8565b60405180910390f35b3480156104dc57600080fd5b506104f760048036038101906104f29190611eb0565b61140a565b604051610508959493929190612091565b60405180910390f35b34801561051d57600080fd5b506105386004803603810190610533919061211a565b61144d565b6040516105459190611be8565b60405180910390f35b34801561055a57600080fd5b50610563611480565b005b34801561057157600080fd5b5061057a6115c5565b005b61059660048036038101906105919190612147565b61170a565b6040516105a39190611f51565b60405180910390f35b3480156105b857600080fd5b506105d360048036038101906105ce91906121b6565b611736565b6040516105e09190611f51565b60405180910390f35b60055481565b600160009054906101000a900473ffffffffffffffffffffffffffffffffffffffff1681565b60008054906101000a900473ffffffffffffffffffffffffffffffffffffffff1681565b600080600c6000846bffffffffffffffffffffffff19166bffffffffffffffffffffffff1916815260200190815260200160002090506000600960008360080154815260200190815260200160002090506000826004015414156106d4578060010154816000015414156106b057600092506106cf565b80600101548160000154116106c65760026106c9565b60015b60ff1692505b610853565b600182600401541415610704578060010154816000015414156106fa57600192506106ff565b600292505b610852565b60028260040154141561077a578160050154610731826001015483600001546119f190919063ffffffff16565b14156107405760009250610775565b8160050154610760826001015483600001546119f190919063ffffffff16565b1161076c57600261076f565b60015b60ff1692505b610851565b6003826004015414156107e2578160050154816001015482600001546107a09190612225565b14156107af57600092506107dd565b8160050154816001015482600001546107c89190612225565b136107d45760026107d7565b60015b60ff1692505b610850565b60048260040154141561084a578160050154816000015482600101546108089190612225565b14156108175760009250610845565b8160050154816000015482600101546108309190612225565b1361083c57600261083f565b60015b60ff1692505b61084f565b600080fd5b5b5b5b5b5050919050565b60008054906101000a900473ffffffffffffffffffffffffffffffffffffffff1673ffffffffffffffffffffffffffffffffffffffff163373ffffffffffffffffffffffffffffffffffffffff16146108b257600080fd5b600073ffffffffffffffffffffffffffffffffffffffff168173ffffffffffffffffffffffffffffffffffffffff1614156108ec57600080fd5b806000806101000a81548173ffffffffffffffffffffffffffffffffffffffff021916908373ffffffffffffffffffffffffffffffffffffffff16021790555050565b60008054906101000a900473ffffffffffffffffffffffffffffffffffffffff1673ffffffffffffffffffffffffffffffffffffffff163373ffffffffffffffffffffffffffffffffffffffff161461098757600080fd5b600073ffffffffffffffffffffffffffffffffffffffff168173ffffffffffffffffffffffffffffffffffffffff1614156109c157600080fd5b80600260006101000a81548173ffffffffffffffffffffffffffffffffffffffff021916908373ffffffffffffffffffffffffffffffffffffffff16021790555050565b600260009054906101000a900473ffffffffffffffffffffffffffffffffffffffff1673ffffffffffffffffffffffffffffffffffffffff163373ffffffffffffffffffffffffffffffffffffffff161480610aac575060008054906101000a900473ffffffffffffffffffffffffffffffffffffffff1673ffffffffffffffffffffffffffffffffffffffff163373ffffffffffffffffffffffffffffffffffffffff16145b80610b045750600160009054906101000a900473ffffffffffffffffffffffffffffffffffffffff1673ffffffffffffffffffffffffffffffffffffffff163373ffffffffffffffffffffffffffffffffffffffff16145b610b0d57600080fd5b60001515600260149054906101000a900460ff16151514610b2d57600080fd5b8060069080519060200190610b43929190611a1d565b5050565b60008054906101000a900473ffffffffffffffffffffffffffffffffffffffff1673ffffffffffffffffffffffffffffffffffffffff163373ffffffffffffffffffffffffffffffffffffffff1614610b9f57600080fd5b600260149054906101000a900460ff16610bb857600080fd5b6000600260146101000a81548160ff021916908315150217905550565b60088181548110610be557600080fd5b906000526020600020016000915090505481565b60006001905090565b60008054906101000a900473ffffffffffffffffffffffffffffffffffffffff1673ffffffffffffffffffffffffffffffffffffffff163373ffffffffffffffffffffffffffffffffffffffff1614610c5a57600080fd5b600073ffffffffffffffffffffffffffffffffffffffff168173ffffffffffffffffffffffffffffffffffffffff161415610c9457600080fd5b80600160006101000a81548173ffffffffffffffffffffffffffffffffffffffff021916908373ffffffffffffffffffffffffffffffffffffffff16021790555050565b600260009054906101000a900473ffffffffffffffffffffffffffffffffffffffff1673ffffffffffffffffffffffffffffffffffffffff163373ffffffffffffffffffffffffffffffffffffffff161480610d7f575060008054906101000a900473ffffffffffffffffffffffffffffffffffffffff1673ffffffffffffffffffffffffffffffffffffffff163373ffffffffffffffffffffffffffffffffffffffff16145b80610dd75750600160009054906101000a900473ffffffffffffffffffffffffffffffffffffffff1673ffffffffffffffffffffffffffffffffffffffff163373ffffffffffffffffffffffffffffffffffffffff16145b610de057600080fd5b60001515600260149054906101000a900460ff16151514610e0057600080fd5b8060058190555050565b600260149054906101000a900460ff1681565b600160009054906101000a900473ffffffffffffffffffffffffffffffffffffffff1673ffffffffffffffffffffffffffffffffffffffff163373ffffffffffffffffffffffffffffffffffffffff1614610e7757600080fd5b600160009054906101000a900473ffffffffffffffffffffffffffffffffffffffff1673ffffffffffffffffffffffffffffffffffffffff166108fc479081150290604051600060405180830381858888f19350505050158015610edf573d6000803e3d6000fd5b50565b600760009054906101000a900473ffffffffffffffffffffffffffffffffffffffff1681565b600260009054906101000a900473ffffffffffffffffffffffffffffffffffffffff1673ffffffffffffffffffffffffffffffffffffffff163373ffffffffffffffffffffffffffffffffffffffff161480610faf575060008054906101000a900473ffffffffffffffffffffffffffffffffffffffff1673ffffffffffffffffffffffffffffffffffffffff163373ffffffffffffffffffffffffffffffffffffffff16145b806110075750600160009054906101000a900473ffffffffffffffffffffffffffffffffffffffff1673ffffffffffffffffffffffffffffffffffffffff163373ffffffffffffffffffffffffffffffffffffffff16145b61101057600080fd5b60001515600260149054906101000a900460ff1615151461103057600080fd5b50565b6006805461104090612288565b80601f016020809104026020016040519081016040528092919081815260200182805461106c90612288565b80156110b95780601f1061108e576101008083540402835291602001916110b9565b820191906000526020600020905b81548152906001019060200180831161109c57829003601f168201915b505050505081565b600260009054906101000a900473ffffffffffffffffffffffffffffffffffffffff1673ffffffffffffffffffffffffffffffffffffffff163373ffffffffffffffffffffffffffffffffffffffff161480611168575060008054906101000a900473ffffffffffffffffffffffffffffffffffffffff1673ffffffffffffffffffffffffffffffffffffffff163373ffffffffffffffffffffffffffffffffffffffff16145b806111c05750600160009054906101000a900473ffffffffffffffffffffffffffffffffffffffff1673ffffffffffffffffffffffffffffffffffffffff163373ffffffffffffffffffffffffffffffffffffffff16145b6111c957600080fd5b60001515600260149054906101000a900460ff161515146111e957600080fd5b6001600260146101000a81548160ff021916908315150217905550565b6000600260009054906101000a900473ffffffffffffffffffffffffffffffffffffffff1673ffffffffffffffffffffffffffffffffffffffff163373ffffffffffffffffffffffffffffffffffffffff1614806112af575060008054906101000a900473ffffffffffffffffffffffffffffffffffffffff1673ffffffffffffffffffffffffffffffffffffffff163373ffffffffffffffffffffffffffffffffffffffff16145b806113075750600160009054906101000a900473ffffffffffffffffffffffffffffffffffffffff1673ffffffffffffffffffffffffffffffffffffffff163373ffffffffffffffffffffffffffffffffffffffff16145b61131057600080fd5b60001515600260149054906101000a900460ff1615151461133057600080fd5b6000600960008881526020019081526020016000209050600381600201541061135857600080fd5b8581600001819055508481600101819055508381600201819055508060020154877fa26b6e7f3cb09b8e2af5c8311aacec9e8e9c925c5e56f12b0eca76bceaeab89d836000015484600101546040516113b29291906122ba565b60405180910390a36113d58360405180602001604052806000815250600061170a565b50600191505095945050505050565b600260009054906101000a900473ffffffffffffffffffffffffffffffffffffffff1681565b60096020528060005260406000206000915090508060000154908060010154908060020154908060030154908060040160009054906101000a900460ff16905085565b600a6020528060005260406000206000915054906101000a900473ffffffffffffffffffffffffffffffffffffffff1681565b600260009054906101000a900473ffffffffffffffffffffffffffffffffffffffff1673ffffffffffffffffffffffffffffffffffffffff163373ffffffffffffffffffffffffffffffffffffffff161480611527575060008054906101000a900473ffffffffffffffffffffffffffffffffffffffff1673ffffffffffffffffffffffffffffffffffffffff163373ffffffffffffffffffffffffffffffffffffffff16145b8061157f5750600160009054906101000a900473ffffffffffffffffffffffffffffffffffffffff1673ffffffffffffffffffffffffffffffffffffffff163373ffffffffffffffffffffffffffffffffffffffff16145b61158857600080fd5b60001515600260149054906101000a900460ff161515146115a857600080fd5b6000600260156101000a81548160ff021916908315150217905550565b600260009054906101000a900473ffffffffffffffffffffffffffffffffffffffff1673ffffffffffffffffffffffffffffffffffffffff163373ffffffffffffffffffffffffffffffffffffffff16148061166c575060008054906101000a900473ffffffffffffffffffffffffffffffffffffffff1673ffffffffffffffffffffffffffffffffffffffff163373ffffffffffffffffffffffffffffffffffffffff16145b806116c45750600160009054906101000a900473ffffffffffffffffffffffffffffffffffffffff1673ffffffffffffffffffffffffffffffffffffffff163373ffffffffffffffffffffffffffffffffffffffff16145b6116cd57600080fd5b60001515600260149054906101000a900460ff161515146116ed57600080fd5b6001600260156101000a81548160ff021916908315150217905550565b6000801515600260149054906101000a900460ff1615151461172b57600080fd5b600190509392505050565b6000600260009054906101000a900473ffffffffffffffffffffffffffffffffffffffff1673ffffffffffffffffffffffffffffffffffffffff163373ffffffffffffffffffffffffffffffffffffffff1614806117df575060008054906101000a900473ffffffffffffffffffffffffffffffffffffffff1673ffffffffffffffffffffffffffffffffffffffff163373ffffffffffffffffffffffffffffffffffffffff16145b806118375750600160009054906101000a900473ffffffffffffffffffffffffffffffffffffffff1673ffffffffffffffffffffffffffffffffffffffff163373ffffffffffffffffffffffffffffffffffffffff16145b61184057600080fd5b60001515600260149054906101000a900460ff1615151461186057600080fd5b600015156009600085815260200190815260200160002060040160009054906101000a900460ff1615151461189457600080fd5b60006040518060c00160405280600081526020016000815260200160008152602001848152602001600115158152602001600067ffffffffffffffff8111156118e0576118df611d10565b5b60405190808252806020026020018201604052801561190e5781602001602082028036833780820191505090505b508152509050600884908060018154018082558091505060019003906000526020600020016000909190919091505580600960008681526020019081526020016000206000820151816000015560208201518160010155604082015181600201556060820151816003015560808201518160040160006101000a81548160ff02191690831515021790555060a08201518160050190805190602001906119b5929190611aa3565b50905050837fe9cebc8c00bdd74535359d968d5b44b432519cbb416612a0b070ab5edf8e32f760405160405180910390a2600191505092915050565b6000808284611a0091906122e3565b905083811015611a1357611a12612339565b5b8091505092915050565b828054611a2990612288565b90600052602060002090601f016020900481019282611a4b5760008555611a92565b82601f10611a6457805160ff1916838001178555611a92565b82800160010185558215611a92579182015b82811115611a91578251825591602001919060010190611a76565b5b509050611a9f9190611b1a565b5090565b828054828255906000526020600020908101928215611b09579160200282015b82811115611b085782518260006101000a81548173ffffffffffffffffffffffffffffffffffffffff021916908360601c021790555091602001919060010190611ac3565b5b509050611b169190611b1a565b5090565b5b80821115611b33576000816000905550600101611b1b565b5090565b6000819050919050565b611b4a81611b37565b82525050565b6000602082019050611b656000830184611b41565b92915050565b600073ffffffffffffffffffffffffffffffffffffffff82169050919050565b6000611b9682611b6b565b9050919050565b611ba681611b8b565b82525050565b6000602082019050611bc16000830184611b9d565b92915050565b6000611bd282611b6b565b9050919050565b611be281611bc7565b82525050565b6000602082019050611bfd6000830184611bd9565b92915050565b6000604051905090565b600080fd5b600080fd5b60007fffffffffffffffffffffffffffffffffffffffff00000000000000000000000082169050919050565b611c4c81611c17565b8114611c5757600080fd5b50565b600081359050611c6981611c43565b92915050565b600060208284031215611c8557611c84611c0d565b5b6000611c9384828501611c5a565b91505092915050565b611ca581611bc7565b8114611cb057600080fd5b50565b600081359050611cc281611c9c565b92915050565b600060208284031215611cde57611cdd611c0d565b5b6000611cec84828501611cb3565b91505092915050565b600080fd5b600080fd5b6000601f19601f8301169050919050565b7f4e487b7100000000000000000000000000000000000000000000000000000000600052604160045260246000fd5b611d4882611cff565b810181811067ffffffffffffffff82111715611d6757611d66611d10565b5b80604052505050565b6000611d7a611c03565b9050611d868282611d3f565b919050565b600067ffffffffffffffff821115611da657611da5611d10565b5b611daf82611cff565b9050602081019050919050565b82818337600083830152505050565b6000611dde611dd984611d8b565b611d70565b905082815260208101848484011115611dfa57611df9611cfa565b5b611e05848285611dbc565b509392505050565b600082601f830112611e2257611e21611cf5565b5b8135611e32848260208601611dcb565b91505092915050565b600060208284031215611e5157611e50611c0d565b5b600082013567ffffffffffffffff811115611e6f57611e6e611c12565b5b611e7b84828501611e0d565b91505092915050565b611e8d81611b37565b8114611e9857600080fd5b50565b600081359050611eaa81611e84565b92915050565b600060208284031215611ec657611ec5611c0d565b5b6000611ed484828501611e9b565b91505092915050565b611ee681611b8b565b8114611ef157600080fd5b50565b600081359050611f0381611edd565b92915050565b600060208284031215611f1f57611f1e611c0d565b5b6000611f2d84828501611ef4565b91505092915050565b60008115159050919050565b611f4b81611f36565b82525050565b6000602082019050611f666000830184611f42565b92915050565b600081519050919050565b600082825260208201905092915050565b60005b83811015611fa6578082015181840152602081019050611f8b565b83811115611fb5576000848401525b50505050565b6000611fc682611f6c565b611fd08185611f77565b9350611fe0818560208601611f88565b611fe981611cff565b840191505092915050565b6000602082019050818103600083015261200e8184611fbb565b905092915050565b600080600080600060a0868803121561203257612031611c0d565b5b600061204088828901611e9b565b955050602061205188828901611e9b565b945050604061206288828901611e9b565b935050606061207388828901611e9b565b925050608061208488828901611c5a565b9150509295509295909350565b600060a0820190506120a66000830188611b41565b6120b36020830187611b41565b6120c06040830186611b41565b6120cd6060830185611b41565b6120da6080830184611f42565b9695505050505050565b6000819050919050565b6120f7816120e4565b811461210257600080fd5b50565b600081359050612114816120ee565b92915050565b6000602082840312156121305761212f611c0d565b5b600061213e84828501612105565b91505092915050565b6000806000606084860312156121605761215f611c0d565b5b600061216e86828701611c5a565b935050602084013567ffffffffffffffff81111561218f5761218e611c12565b5b61219b86828701611e0d565b92505060406121ac86828701611e9b565b9150509250925092565b600080604083850312156121cd576121cc611c0d565b5b60006121db85828601611e9b565b92505060206121ec85828601611e9b565b9150509250929050565b7f4e487b7100000000000000000000000000000000000000000000000000000000600052601160045260246000fd5b600061223082611b37565b915061223b83611b37565b92508282101561224e5761224d6121f6565b5b828203905092915050565b7f4e487b7100000000000000000000000000000000000000000000000000000000600052602260045260246000fd5b600060028204905060018216806122a057607f821691505b602082108114156122b4576122b3612259565b5b50919050565b60006040820190506122cf6000830185611b41565b6122dc6020830184611b41565b9392505050565b60006122ee82611b37565b91506122f983611b37565b9250827fffffffffffffffffffffffffffffffffffffffffffffffffffffffffffffffff0382111561232e5761232d6121f6565b5b828201905092915050565b7f4e487b7100000000000000000000000000000000000000000000000000000000600052600160045260246000fdfea2646970667358221220118360d01f63ccf1c33637bfc8e1e911b56f11324c03b288a4bab0238bd9c01c64736f6c63430008090033",
  "immutableReferences": {},
  "source": "pragma solidity ^0.8.4;\n//import \"./usingOraclize.sol\";\n//import \"github.com/oraclize/ethereum-api/oraclizeAPI.sol\";\n//import \"github.com/Arachnid/solidity-stringutils/src/strings.sol\";\n//import \"oraclize-api/contracts/usingOraclize.sol\";\n// import \"../installed_contracts/oraclize-api/contracts/usingOraclize.sol\";\n// import \"../installed_contracts/strings/strings.sol\";\nimport \"./SafeMath.sol\";\nimport \"./BetStorage.sol\";\n/// @title Bet contract which communicates with Oraclize, refunds, and settles wagers\n\n/*\nBetnOracle.sol is responsible for interacting with the oracle service (Oraclize as of 4/4/2018).\nThe oracle service will query a trusted data source (Opta sports) for up-to-date match scores.\nThe response must be parsed as it is returned to the contract as a string.\nIf there are matches which are in-progress or are starting < 24 hours, the contract will send\na query to the oracle service once every hour\nIf there are not matches in-progress, and no matches starting < 24 hours, the contract will send\na query to the oracle service once every 24 hours, until it finds a match beginning < 24 hours.\nThe oracle service response will trigger match creation and match updates in storage.  It will not\nsettle wagers within the matches.  This process is completed by the user (once the match has been updated to \"complete\")\n*/\ncontract BetOracle is BetStorage {\n\n    using SafeMath for uint256;\n\n    modifier onlyCLevelOrOracle() {\n        require(\n            msg.sender == cooAddress ||\n            msg.sender == ceoAddress ||\n            msg.sender == cfoAddress\n            // msg.sender == oraclize_cbAddress()\n        );\n        _;\n    }\n\n    // modifier onlyOraclize() {\n    //     require(msg.sender == oraclize_cbAddress());\n    //     _;\n    // }\n\n    modifier whenNotPaused() override {\n        require(paused == false);\n        _;\n    }\n\n    //pause or unpause the queriesArePaused variable\n    function pauseQuery()\n        public\n        onlyCLevelOrOracle\n        whenNotPaused\n    {\n        queriesArePaused = true;\n    }\n\n    //pause or unpause the queriesArePaused variable\n    function unPauseQuery()\n        public\n        onlyCLevelOrOracle\n        whenNotPaused\n    {\n        queriesArePaused = false;\n    }\n\n    //update oracalize gas price\n    function setOraclizeGasPrice(uint newGasPrice)\n        public\n        onlyCLevelOrOracle\n        whenNotPaused\n    { //2000000000 = 2GWei\n        // oraclize_setCustomGasPrice(newGasPrice); //newGasPrice should be in wei units e.g. 2000000000 for 2GWei\n        // OraclizeGasPriceUpdated(\"Oraclize gas price has been updated.\", newGasPrice);\n    }\n\n    //update oraclize query delay\n    //function updateQueryDelay(uint256 _delay) public onlyCLevelOrOracle whenNotPaused { delay = _delay; }\n\n    //get oraclize gas cost for user to pay when verifying token from api\n    function getGasCostForValidation() public returns (uint) {\n        return 1;\n        // return oraclize_getPrice(\"URL\", 100000);\n    }\n\n    //update oraclize gas limit\n    function updateOraclizeGasLimit(uint newGasLimit)\n      public\n      onlyCLevelOrOracle\n      whenNotPaused\n    {\n      oracleGasLimit = newGasLimit;\n    }\n\n    //update oraclize data source url\n    function updateOracleDataSourceUrl(string memory newUrl)\n      public\n      onlyCLevelOrOracle\n      whenNotPaused\n    {\n      oracleDataSourceUrl = newUrl;\n    }\n\n    function constructUrl(string memory sport, uint matchId)\n      internal\n      whenNotPaused\n      returns (string memory)\n    {\n      return '';\n      //return \"json(\".toSlice().concat(sliceUrl).toSlice().concat(sliceSport).toSlice().concat(\"/\".toSlice()).toSlice().concat(sliceMatchId).toSlice().concat(\").[0]\".toSlice());\n    }\n\n    //function which will be called to make Oraclize query to ?\n    //we need to pay ether for this transaction, so we mark it as payable.\n    //the ether will be supplied by this.balance within the contract.\n    function getMatchResults(string memory sport, uint matchId, bytes20 wagerId)\n        internal\n        whenNotPaused\n    {\n\n      if (!queriesArePaused) {\n\n        //   bytes32 queryId = oraclize_query(\"URL\", constructUrl(sport, matchId), oracleGasLimit);\n\n        //   validQueryIds[queryId] = address(this);//we reuse this mapping by putting in our contract address if the query exists\n        //   queryIdToWagerId[queryId] = wagerId;\n\n          //log .... XXX\n          emit LogNewOraclizeQuery(\"Oraclize queries were sent, standing by for the answer..\");\n          //validIds[queryId] = true;\n      } else {\n          emit LogNewOraclizeQuery(\"Oraclize query was NOT sent\");\n      }\n    }\n\n    //callback function will be called when Opta query is returned\n    // function __callback(\n    //     bytes32 myid,\n    //     string response,\n    //     bytes proof\n    // )\n    //     whenNotPaused\n    // {\n    //     //LogMatchResultId(\"Logging match result id within callback...\", myid);\n    //     //if (validQueryIds[myid] == address(0)) revert(); //check if for query validity. a valid query will either have an address to add, or 'this'\n    //     if (msg.sender != oraclize_cbAddress()) revert();\n    //     if (validQueryIds[myid] == address(this)) {//THIS WILL BE TRUE FOR MATCH UPDATE (which occur when the first user attempts to settle a wager)\n    //         parseMatchResult(queryIdToWagerId[myid], response);\n    //     } else if (validQueryIds[myid] == address(0)) { //THIS WILL BE TRUE WHEN A USER ATTEMPTS TO CREATE A WAGER FOR A MATCH WHICH HAS NOT YET STARTED\n    //         //create match, and add wager to it\n    //         require(createMatchAndWager(queryIdToWagerId[myid], response));\n    //     } else {\n    //       //shouldn't get here\n    //       revert();\n    //     }\n    //     delete queryIdToWagerId[myid];\n    //     delete validQueryIds[myid]; //remove queryId from storage\n    // }\n\n    function parseMatchResult(bytes20 wagerId, string memory response)\n        internal\n        onlyCLevelOrOracle\n        whenNotPaused\n        returns (bool)\n    {\n\n        // bytes individualMatch = response.toSlice();\n\n        // uint home = parseInt(individualMatch.copy().find(\"\\\"homeScore\\\": \".toSlice()).split(\",\".toSlice()).beyond(\"\\\"homeScore\\\": \".toSlice()).toString());\n        // uint away = parseInt(individualMatch.copy().find(\"\\\"awayScore\\\": \".toSlice()).split(\",\".toSlice()).beyond(\"\\\"awayScore\\\": \".toSlice()).toString());\n        // uint status = parseInt(individualMatch.copy().find(\"\\\"status\\\": \".toSlice()).split(\",\".toSlice()).beyond(\"\\\"status\\\": \".toSlice()).toString());\n        // //uint startTime = parseInt(individualMatch.copy().find(\"\\\"startTime\\\": \".toSlice()).split(\",\".toSlice()).beyond(\"\\\"startTime\\\": \".toSlice()).toString());\n        // uint matchId = parseInt(individualMatch.copy().find(\"\\\"gameId\\\": \".toSlice()).split(\",\".toSlice()).beyond(\"\\\"gameId\\\": \".toSlice()).toString());\n\n        // Match storage _match = matchStructsById[matchId];\n\n\n        // if (status == 4) {\n        // //if updated status is final, and previous status is not final, settle all wagers\n        //     if (_match.status != 4) {\n        //         //LogMatchResultUpdate(\"Match has gone final. Settling wagers...\", matchId);\n        //         require(updateMatch(matchId, home, away, status, wagerId));\n        //     }//ignore otherwise\n        // } else if (status == 3) {\n        // //if updated status is postponed, and old status was not postponed, refund all wagers\n        //     if (_match.status != 3) {\n        //         //LogMatchResultUpdate(\"Match has been cancelled. Refunding wagers...\", matchId);\n        //         require(updateMatch(matchId, home, away, status, wagerId));\n        //     }//ignore otherwise\n        // } else {\n        //   //status is either pending (game hasn't yet started), or in progress\n        //     //LogMatchResultUpdate(\"Nothing to update. Skipping match...\", matchId);\n        //     //countOfActiveMatches++;\n        // }\n\n        //log result of update\n        emit LogMatchResultUpdate(\"match update success\");\n\n        return true;\n    }\n\n    /// creates a match if a new match is received from oracle/opta api callback\n    function createMatchAndWager(\n        bytes20 wagerId,\n        string memory response\n    )\n        internal\n        onlyCLevelOrOracle\n        whenNotPaused\n        returns (bool)\n    {\n\n        // bytes individualMatch = response.toSlice();\n\n        // uint startTime = parseInt(individualMatch.copy().find(\"\\\"startTime\\\": \".toSlice()).split(\",\".toSlice()).beyond(\"\\\"startTime\\\": \".toSlice()).toString());\n        // uint matchId = parseInt(individualMatch.copy().find(\"\\\"gameId\\\": \".toSlice()).split(\",\".toSlice()).beyond(\"\\\"gameId\\\": \".toSlice()).toString());\n\n        // require(matchStructsById[matchId].created == false); //no overwriting existing matches\n\n        // Match memory _match = Match({\n        //     home: 0,\n        //     away: 0,\n        //     status: 0,\n        //     startTime: startTime,\n        //     created: true,\n        //     wagerIds: new bytes20[](0)\n        // });\n\n        // matches.push(matchId);\n        // matchStructsById[matchId] = _match;\n\n        // //ADD WAGER ID OF USER WHO INITIATED THIS CALL\n        // Match storage gotMatch = matchStructsById[matchId];\n        // gotMatch.wagerIds.push(wagerId);\n\n        // emit NewMatchCreated(\n        //     matchId\n        // );\n\n        return true;\n    }\n\n    /// creates a match if a new match is received from oracle/opta api callback\n    function createMatch(\n        uint matchId,\n        uint256 startTime\n    )\n        public\n        onlyCLevelOrOracle\n        whenNotPaused\n        returns (bool)\n    {\n        //require(startTime > now);\n        require(matchStructsById[matchId].created == false); //no overwriting existing matches\n\n        Match memory _match = Match({\n            home: 0,\n            away: 0,\n            status: 0,\n            startTime: startTime,\n            created: true,\n            wagerIds: new bytes20[](0)\n        });\n\n        matches.push(matchId);\n        matchStructsById[matchId] = _match;\n\n        emit NewMatchCreated(\n            matchId\n        );\n\n        return true;\n    }\n\n    //called when callback notifies contract that a particular match has been completed or cancelled\n    function updateMatch(\n        uint matchId,\n        uint home,\n        uint away,\n        uint status,\n        bytes20 wagerId\n    )\n        public\n        onlyCLevelOrOracle\n        whenNotPaused\n        returns (bool)\n    {\n\n        Match storage gotMatch = matchStructsById[matchId];\n        require(gotMatch.status < 3); //the match must have a current status of  0,1,2 = pregame or in progress.\n        gotMatch.home = home;\n        gotMatch.away = away;\n        gotMatch.status = status;\n\n        emit MatchUpdated(\n            matchId,\n            gotMatch.home,\n            gotMatch.away,\n            gotMatch.status\n        );\n\n        //we call settleWager with an empty string for 'sport' and '0' for 'matchId' because we do not need these params\n        //they are only needed for the URL path when an oracle query is necessary for match updates\n        settleWager(wagerId, '', 0);\n\n        return true;\n    }\n\n    //can be called by any address to settle a wager for a game which has a status of 3 (cancelled) or 4 (completed)\n    //the account which calls this function will pay the transaction fee\n    function settleWager(bytes20 wagerId, string memory sport, uint matchId)\n        public\n        payable\n        whenNotPaused\n        returns (bool)\n    {\n        // Wager storage wager = wagers[wagerId];\n        // Match storage gotMatch = matchStructsById[wager.matchId];\n        // require(!wager.isSettled);\n        // if(gotMatch.status < 3) {\n        //   if (oraclize_getPrice(\"URL\", 100000) > msg.value || oraclize_getPrice(\"URL\", 2000000) < msg.value) {\n        //       emit LogNewOraclizeQuery(\"Query fee was either too low or too high. \");\n        //       revert();\n        //   } else {\n        //       getMatchResults(sport, matchId, wagerId);\n        //   }\n        //   return true;\n        // }\n        // require(gotMatch.status > 2); //the match must have a current status of  0,1,2 = pregame or in progress.\n\n        // if (gotMatch.status == 3) {\n        //     //refund\n        //     //rToken.transfer(wager.creator, wager.creatorRisk);\n        //     if (wager.taker != address(0)) {\n        //         //rToken.transfer(wager.taker, wager.takerRisk);\n        //     }\n        // } else if (gotMatch.status == 4) {\n        //     //match is final\n        //     require(settleStraightWager(wagerId));\n\n        // } else {\n        //     //this point should never be reached, as it implies that the match has a status which the contract is not expecting.\n        //     revert();\n        // }\n\n        // //clean up and finalize\n        // wager.isSettled = true;\n        // //wagers[wagerId] = wager;\n        // //delete wagers[wagerId];\n\n        // emit WagerSettled(\n        //     wagerId,\n        //     wager.matchId\n        // );\n\n        return true;\n    }\n\n    //settles a straight wager\n    function settleStraightWager(bytes20 wagerId)\n        private\n        whenNotPaused\n        returns (bool)\n    {\n      Wager storage wager = wagers[wagerId];\n\n      if(wager.taker == address(0)) { //send tokens back if no one took the bet\n        //rToken.transfer(wager.creator, wager.creatorRisk); //send tokens back to creator\n      } else if (wager.takerSide == determineWagerResult(wagerId)) {\n        //rToken.transfer(wager.taker, commission.mul(wager.creatorRisk).div(100).add(wager.takerRisk));\n      } else if (wager.creatorSide == determineWagerResult(wagerId)) {\n        //rToken.transfer(wager.creator, commission.mul(wager.takerRisk).div(100).add(wager.creatorRisk));\n      } else {\n        //rToken.transfer(wager.creator, wager.creatorRisk); //send tokens back to creator\n        //rToken.transfer(wager.taker, wager.takerRisk); //send tokens back to taker\n      }\n      return true;\n    }\n\n    //called by settleWager().  will return result of any particular wager type based on match result\n    function determineWagerResult(bytes20 wagerId)\n        public\n        returns (uint matchResult)\n    {\n        Wager storage wager = wagers[wagerId];\n        Match storage gotMatch = matchStructsById[wager.matchId];\n\n        if (wager.wagerType == 0) { //if 1v1 team A vs team B wager type\n            if (gotMatch.home == gotMatch.away) {\n                matchResult = 0; //if scores are equal and match is over, it is a draw 0\n            } else {\n                matchResult = gotMatch.home > gotMatch.away ? 1 : 2; //if home team wins, result = 1, else 2\n            }\n        } else if (wager.wagerType == 1) { //if \"draw\" wager type.   1 = draw, 2 = no draw\n            if (gotMatch.home == gotMatch.away) {\n                matchResult = 1; //if scores are equal and match is over, it is a draw and the users who chose \"home\" (1) win\n            } else {\n                matchResult = 2; //if no draw, users who chose \"away\" (2) win\n            }\n        } else if (wager.wagerType == 2) {//if \"total\" wager (over/under)\n            if (gotMatch.home.add(gotMatch.away) == wager.spread) { //if total points is equal to spread, refund\n                matchResult = 0; //if scores are equal and match is over, it is a draw 0\n            } else {\n                matchResult = gotMatch.home.add(gotMatch.away) > wager.spread ? 1 : 2; //if combined points is over spread, 1 (home) wins, else, 2 (away) under wins\n            }\n        } else if (wager.wagerType == 3) {//goal diff for home team (over/under)\n            if (gotMatch.home - gotMatch.away == wager.spread) { //if goal diff is equal to spread, refund\n                matchResult = 0; //if goal diff is equal to spread and match is over, it is a draw 0\n            } else {\n                matchResult = int(gotMatch.home - gotMatch.away) > int(wager.spread) ? 1 : 2; //if goal diff points is over spread, 1 (home) wins, else, 2 (away) under wins\n            }\n        } else if (wager.wagerType == 4) {//goal diff for away team (over/under)\n            if (gotMatch.away - gotMatch.home == wager.spread) { //if goal diff is equal to spread, refund\n                matchResult = 0; //if goal diff is equal to spread and match is over, it is a draw 0\n            } else {\n                matchResult = int(gotMatch.away - gotMatch.home) > int(wager.spread) ? 1 : 2; //if goal diff points is over spread, 1 (home) wins, else, 2 (away) under wins\n            }\n        } else {\n            revert(); //shouldn't reach\n        }\n    }\n\n    /// @dev A public method that creates a new wager and stores it\n    function createFirstWagerOfMatch(\n      bytes20 wagerId,\n      string memory sport,\n      uint matchId\n    )\n        internal\n        whenNotPaused\n        returns (bool)\n    {\n        // //prevent someone accidentally sending too much or too little to cover the oraclize fee\n        // //queryId = oraclize_query(delay, \"URL\", \"json(http://api.fixer.io/latest?symbols=USD,GBP).rates\");\n        // if (!queriesArePaused) {\n        //     //url with json accessors to query\n        //     //string public oracleDataSourceUrl = \"json(http://13.57.222.160:5000/gameday).[*]\";\n\n        //     //oraclize_setProof(proofType_TLSNotary | proofStorage_IPFS); //set proof to verify query result authenticity\n\n        //     //our api\n        //     bytes32 queryId = oraclize_query(\"URL\", constructUrl(sport, matchId), oracleGasLimit);\n        //     //bytes32 queryId = oraclize_query(delay, \"URL\", \"json(http://54.183.244.59:5000/livecenter).matches\", oraclizeGasLimit);\n\n        //     //store each query ?\n        //     queryIdToWagerId[queryId] = wagerId;//we reuse this mapping by putting in our contract address if the query exists\n\n        //     //log .... XXX\n        //     emit LogNewOraclizeQuery(\"Oraclize queries were sent, standing by for the answer..\");\n        //     //validIds[queryId] = true;\n        // } else {\n        //     emit LogNewOraclizeQuery(\"Oraclize query was NOT sent\");\n        // }\n\n        return true;\n    }\n\n}",
  "sourcePath": "/home/z/code/react-decentralized-betting/contracts/BetOracle.sol",
  "compiler": {
    "name": "solc",
    "version": "0.8.9+commit.e5eed63a.Emscripten.clang"
  },
  "schemaVersion": "3.4.3",
  "updatedAt": "2021-10-22T13:19:06.903Z",
  "devdoc": {
    "kind": "dev",
    "methods": {
      "pause()": {
        "details": "Called by any \"C-level\" role to pause the contract. Used only when  a bug or exploit is detected and we need to limit damage."
      },
      "setCEO(address)": {
        "details": "Assigns a new address to act as the CEO. Only available to the current CEO.",
        "params": {
          "_newCEO": "The address of the new CEO"
        }
      },
      "setCFO(address)": {
        "details": "Assigns a new address to act as the CFO. Only available to the current CEO.",
        "params": {
          "_newCFO": "The address of the new CFO"
        }
      },
      "setCOO(address)": {
        "details": "Assigns a new address to act as the COO. Only available to the current CEO.",
        "params": {
          "_newCOO": "The address of the new COO"
        }
      },
      "unpause()": {
        "details": "Unpauses the smart contract. Can only be called by the CEO, since  one reason we may pause the contract is when CFO or COO accounts are  compromised."
      }
    },
    "title": "Bet contract which communicates with Oraclize, refunds, and settles wagers",
    "version": 1
  },
  "userdoc": {
    "kind": "user",
    "methods": {
      "createMatch(uint256,uint256)": {
        "notice": "creates a match if a new match is received from oracle/opta api callback"
      },
      "matches(uint256)": {
        "notice": "a string array which records total count of matches."
      }
    },
    "version": 1
  }
}