{
  "contractName": "BetStorage",
  "abi": [
    {
      "anonymous": false,
      "inputs": [
        {
          "indexed": false,
          "internalType": "address",
          "name": "newContract",
          "type": "address"
        }
      ],
      "name": "ContractUpgrade",
      "type": "event"
    },
    {
      "anonymous": false,
      "inputs": [
        {
          "indexed": false,
          "internalType": "string",
          "name": "description",
          "type": "string"
        }
      ],
      "name": "LogMatchResultUpdate",
      "type": "event"
    },
    {
      "anonymous": false,
      "inputs": [
        {
          "indexed": false,
          "internalType": "string",
          "name": "description",
          "type": "string"
        }
      ],
      "name": "LogNewOraclizeQuery",
      "type": "event"
    },
    {
      "anonymous": false,
      "inputs": [
        {
          "indexed": false,
          "internalType": "bytes32",
          "name": "queryId",
          "type": "bytes32"
        }
      ],
      "name": "LogQueryId",
      "type": "event"
    },
    {
      "anonymous": false,
      "inputs": [
        {
          "indexed": true,
          "internalType": "uint256",
          "name": "matchId",
          "type": "uint256"
        },
        {
          "indexed": false,
          "internalType": "uint256",
          "name": "home",
          "type": "uint256"
        },
        {
          "indexed": false,
          "internalType": "uint256",
          "name": "away",
          "type": "uint256"
        },
        {
          "indexed": true,
          "internalType": "uint256",
          "name": "status",
          "type": "uint256"
        }
      ],
      "name": "MatchUpdated",
      "type": "event"
    },
    {
      "anonymous": false,
      "inputs": [
        {
          "indexed": true,
          "internalType": "uint256",
          "name": "matchId",
          "type": "uint256"
        }
      ],
      "name": "NewMatchCreated",
      "type": "event"
    },
    {
      "anonymous": false,
      "inputs": [
        {
          "indexed": true,
          "internalType": "address",
          "name": "creator",
          "type": "address"
        },
        {
          "indexed": true,
          "internalType": "uint256",
          "name": "matchId",
          "type": "uint256"
        },
        {
          "indexed": false,
          "internalType": "bytes20",
          "name": "wagerId",
          "type": "bytes20"
        },
        {
          "indexed": false,
          "internalType": "uint256",
          "name": "wagerType",
          "type": "uint256"
        }
      ],
      "name": "NewWagerCreated",
      "type": "event"
    },
    {
      "anonymous": false,
      "inputs": [
        {
          "indexed": false,
          "internalType": "string",
          "name": "description",
          "type": "string"
        },
        {
          "indexed": false,
          "internalType": "address",
          "name": "addr",
          "type": "address"
        }
      ],
      "name": "UpdateAddress",
      "type": "event"
    },
    {
      "anonymous": false,
      "inputs": [
        {
          "indexed": true,
          "internalType": "address",
          "name": "sender",
          "type": "address"
        },
        {
          "indexed": true,
          "internalType": "address",
          "name": "creator",
          "type": "address"
        },
        {
          "indexed": true,
          "internalType": "bytes20",
          "name": "wagerId",
          "type": "bytes20"
        }
      ],
      "name": "WagerAccepted",
      "type": "event"
    },
    {
      "anonymous": false,
      "inputs": [
        {
          "indexed": true,
          "internalType": "bytes20",
          "name": "wagerId",
          "type": "bytes20"
        },
        {
          "indexed": true,
          "internalType": "uint256",
          "name": "matchId",
          "type": "uint256"
        }
      ],
      "name": "WagerSettled",
      "type": "event"
    },
    {
      "inputs": [],
      "name": "ceoAddress",
      "outputs": [
        {
          "internalType": "address",
          "name": "",
          "type": "address"
        }
      ],
      "stateMutability": "view",
      "type": "function"
    },
    {
      "inputs": [],
      "name": "cfoAddress",
      "outputs": [
        {
          "internalType": "address payable",
          "name": "",
          "type": "address"
        }
      ],
      "stateMutability": "view",
      "type": "function"
    },
    {
      "inputs": [],
      "name": "cooAddress",
      "outputs": [
        {
          "internalType": "address",
          "name": "",
          "type": "address"
        }
      ],
      "stateMutability": "view",
      "type": "function"
    },
    {
      "inputs": [
        {
          "internalType": "uint256",
          "name": "",
          "type": "uint256"
        }
      ],
      "name": "matchStructsById",
      "outputs": [
        {
          "internalType": "uint256",
          "name": "home",
          "type": "uint256"
        },
        {
          "internalType": "uint256",
          "name": "away",
          "type": "uint256"
        },
        {
          "internalType": "uint256",
          "name": "status",
          "type": "uint256"
        },
        {
          "internalType": "uint256",
          "name": "startTime",
          "type": "uint256"
        },
        {
          "internalType": "bool",
          "name": "created",
          "type": "bool"
        }
      ],
      "stateMutability": "view",
      "type": "function"
    },
    {
      "inputs": [
        {
          "internalType": "uint256",
          "name": "",
          "type": "uint256"
        }
      ],
      "name": "matches",
      "outputs": [
        {
          "internalType": "uint256",
          "name": "",
          "type": "uint256"
        }
      ],
      "stateMutability": "view",
      "type": "function"
    },
    {
      "inputs": [],
      "name": "newContractAddress",
      "outputs": [
        {
          "internalType": "address",
          "name": "",
          "type": "address"
        }
      ],
      "stateMutability": "view",
      "type": "function"
    },
    {
      "inputs": [],
      "name": "oracleDataSourceUrl",
      "outputs": [
        {
          "internalType": "string",
          "name": "",
          "type": "string"
        }
      ],
      "stateMutability": "view",
      "type": "function"
    },
    {
      "inputs": [],
      "name": "oracleGasLimit",
      "outputs": [
        {
          "internalType": "uint256",
          "name": "",
          "type": "uint256"
        }
      ],
      "stateMutability": "view",
      "type": "function"
    },
    {
      "inputs": [],
      "name": "pause",
      "outputs": [],
      "stateMutability": "nonpayable",
      "type": "function"
    },
    {
      "inputs": [],
      "name": "paused",
      "outputs": [
        {
          "internalType": "bool",
          "name": "",
          "type": "bool"
        }
      ],
      "stateMutability": "view",
      "type": "function"
    },
    {
      "inputs": [
        {
          "internalType": "address",
          "name": "_newCEO",
          "type": "address"
        }
      ],
      "name": "setCEO",
      "outputs": [],
      "stateMutability": "nonpayable",
      "type": "function"
    },
    {
      "inputs": [
        {
          "internalType": "address payable",
          "name": "_newCFO",
          "type": "address"
        }
      ],
      "name": "setCFO",
      "outputs": [],
      "stateMutability": "nonpayable",
      "type": "function"
    },
    {
      "inputs": [
        {
          "internalType": "address",
          "name": "_newCOO",
          "type": "address"
        }
      ],
      "name": "setCOO",
      "outputs": [],
      "stateMutability": "nonpayable",
      "type": "function"
    },
    {
      "inputs": [],
      "name": "unpause",
      "outputs": [],
      "stateMutability": "nonpayable",
      "type": "function"
    },
    {
      "inputs": [
        {
          "internalType": "bytes32",
          "name": "",
          "type": "bytes32"
        }
      ],
      "name": "validQueryIds",
      "outputs": [
        {
          "internalType": "address",
          "name": "",
          "type": "address"
        }
      ],
      "stateMutability": "view",
      "type": "function"
    },
    {
      "inputs": [],
      "name": "withdrawBalance",
      "outputs": [],
      "stateMutability": "nonpayable",
      "type": "function"
    }
  ],
  "bytecode": "0x60806040526000600260146101000a81548160ff0219169083151502179055506000600260156101000a81548160ff02191690831515021790555060616003556000600460006101000a81548160ff02191690831515021790555062061a806005556040518060400160405280600381526020017f746264000000000000000000000000000000000000000000000000000000000081525060069080519060200190620000ae929190620000c3565b50348015620000bc57600080fd5b50620001d8565b828054620000d190620001a2565b90600052602060002090601f016020900481019282620000f5576000855562000141565b82601f106200011057805160ff191683800117855562000141565b8280016001018555821562000141579182015b828111156200014057825182559160200191906001019062000123565b5b50905062000150919062000154565b5090565b5b808211156200016f57600081600090555060010162000155565b5090565b7f4e487b7100000000000000000000000000000000000000000000000000000000600052602260045260246000fd5b60006002820490506001821680620001bb57607f821691505b60208210811415620001d257620001d162000173565b5b50919050565b610de180620001e86000396000f3fe608060405234801561001057600080fd5b50600436106101005760003560e01c80635c975abb116100975780638456cb59116100665780638456cb5914610251578063b047fb501461025b578063be1b997714610279578063c6712050146102ad57610100565b80635c975abb146101ed5780635fd8c7101461020b5780636af04a571461021557806374e5741e1461023357610100565b80632ba73c15116100d35780632ba73c151461017b5780633f4ba83a146101975780634768d4ef146101a15780634e0a3379146101d157610100565b806305121bd3146101055780630519ce79146101235780630a0f81681461014157806327d7874c1461015f575b600080fd5b61010d6102dd565b60405161011a91906109e0565b60405180910390f35b61012b6102e3565b6040516101389190610a3c565b60405180910390f35b610149610309565b6040516101569190610a78565b60405180910390f35b61017960048036038101906101749190610ac4565b61032d565b005b61019560048036038101906101909190610ac4565b610402565b005b61019f6104d8565b005b6101bb60048036038101906101b69190610b1d565b610566565b6040516101c891906109e0565b60405180910390f35b6101eb60048036038101906101e69190610b76565b61058a565b005b6101f5610660565b6040516102029190610bbe565b60405180910390f35b610213610673565b005b61021d610738565b60405161022a9190610a78565b60405180910390f35b61023b61075e565b6040516102489190610c72565b60405180910390f35b6102596107ec565b005b61026361092b565b6040516102709190610a78565b60405180910390f35b610293600480360381019061028e9190610b1d565b610951565b6040516102a4959493929190610c94565b60405180910390f35b6102c760048036038101906102c29190610d1d565b610994565b6040516102d49190610a78565b60405180910390f35b60055481565b600160009054906101000a900473ffffffffffffffffffffffffffffffffffffffff1681565b60008054906101000a900473ffffffffffffffffffffffffffffffffffffffff1681565b60008054906101000a900473ffffffffffffffffffffffffffffffffffffffff1673ffffffffffffffffffffffffffffffffffffffff163373ffffffffffffffffffffffffffffffffffffffff161461038557600080fd5b600073ffffffffffffffffffffffffffffffffffffffff168173ffffffffffffffffffffffffffffffffffffffff1614156103bf57600080fd5b806000806101000a81548173ffffffffffffffffffffffffffffffffffffffff021916908373ffffffffffffffffffffffffffffffffffffffff16021790555050565b60008054906101000a900473ffffffffffffffffffffffffffffffffffffffff1673ffffffffffffffffffffffffffffffffffffffff163373ffffffffffffffffffffffffffffffffffffffff161461045a57600080fd5b600073ffffffffffffffffffffffffffffffffffffffff168173ffffffffffffffffffffffffffffffffffffffff16141561049457600080fd5b80600260006101000a81548173ffffffffffffffffffffffffffffffffffffffff021916908373ffffffffffffffffffffffffffffffffffffffff16021790555050565b60008054906101000a900473ffffffffffffffffffffffffffffffffffffffff1673ffffffffffffffffffffffffffffffffffffffff163373ffffffffffffffffffffffffffffffffffffffff161461053057600080fd5b600260149054906101000a900460ff1661054957600080fd5b6000600260146101000a81548160ff021916908315150217905550565b6008818154811061057657600080fd5b906000526020600020016000915090505481565b60008054906101000a900473ffffffffffffffffffffffffffffffffffffffff1673ffffffffffffffffffffffffffffffffffffffff163373ffffffffffffffffffffffffffffffffffffffff16146105e257600080fd5b600073ffffffffffffffffffffffffffffffffffffffff168173ffffffffffffffffffffffffffffffffffffffff16141561061c57600080fd5b80600160006101000a81548173ffffffffffffffffffffffffffffffffffffffff021916908373ffffffffffffffffffffffffffffffffffffffff16021790555050565b600260149054906101000a900460ff1681565b600160009054906101000a900473ffffffffffffffffffffffffffffffffffffffff1673ffffffffffffffffffffffffffffffffffffffff163373ffffffffffffffffffffffffffffffffffffffff16146106cd57600080fd5b600160009054906101000a900473ffffffffffffffffffffffffffffffffffffffff1673ffffffffffffffffffffffffffffffffffffffff166108fc479081150290604051600060405180830381858888f19350505050158015610735573d6000803e3d6000fd5b50565b600760009054906101000a900473ffffffffffffffffffffffffffffffffffffffff1681565b6006805461076b90610d79565b80601f016020809104026020016040519081016040528092919081815260200182805461079790610d79565b80156107e45780601f106107b9576101008083540402835291602001916107e4565b820191906000526020600020905b8154815290600101906020018083116107c757829003601f168201915b505050505081565b600260009054906101000a900473ffffffffffffffffffffffffffffffffffffffff1673ffffffffffffffffffffffffffffffffffffffff163373ffffffffffffffffffffffffffffffffffffffff161480610893575060008054906101000a900473ffffffffffffffffffffffffffffffffffffffff1673ffffffffffffffffffffffffffffffffffffffff163373ffffffffffffffffffffffffffffffffffffffff16145b806108eb5750600160009054906101000a900473ffffffffffffffffffffffffffffffffffffffff1673ffffffffffffffffffffffffffffffffffffffff163373ffffffffffffffffffffffffffffffffffffffff16145b6108f457600080fd5b600260149054906101000a900460ff161561090e57600080fd5b6001600260146101000a81548160ff021916908315150217905550565b600260009054906101000a900473ffffffffffffffffffffffffffffffffffffffff1681565b60096020528060005260406000206000915090508060000154908060010154908060020154908060030154908060040160009054906101000a900460ff16905085565b600a6020528060005260406000206000915054906101000a900473ffffffffffffffffffffffffffffffffffffffff1681565b6000819050919050565b6109da816109c7565b82525050565b60006020820190506109f560008301846109d1565b92915050565b600073ffffffffffffffffffffffffffffffffffffffff82169050919050565b6000610a26826109fb565b9050919050565b610a3681610a1b565b82525050565b6000602082019050610a516000830184610a2d565b92915050565b6000610a62826109fb565b9050919050565b610a7281610a57565b82525050565b6000602082019050610a8d6000830184610a69565b92915050565b600080fd5b610aa181610a57565b8114610aac57600080fd5b50565b600081359050610abe81610a98565b92915050565b600060208284031215610ada57610ad9610a93565b5b6000610ae884828501610aaf565b91505092915050565b610afa816109c7565b8114610b0557600080fd5b50565b600081359050610b1781610af1565b92915050565b600060208284031215610b3357610b32610a93565b5b6000610b4184828501610b08565b91505092915050565b610b5381610a1b565b8114610b5e57600080fd5b50565b600081359050610b7081610b4a565b92915050565b600060208284031215610b8c57610b8b610a93565b5b6000610b9a84828501610b61565b91505092915050565b60008115159050919050565b610bb881610ba3565b82525050565b6000602082019050610bd36000830184610baf565b92915050565b600081519050919050565b600082825260208201905092915050565b60005b83811015610c13578082015181840152602081019050610bf8565b83811115610c22576000848401525b50505050565b6000601f19601f8301169050919050565b6000610c4482610bd9565b610c4e8185610be4565b9350610c5e818560208601610bf5565b610c6781610c28565b840191505092915050565b60006020820190508181036000830152610c8c8184610c39565b905092915050565b600060a082019050610ca960008301886109d1565b610cb660208301876109d1565b610cc360408301866109d1565b610cd060608301856109d1565b610cdd6080830184610baf565b9695505050505050565b6000819050919050565b610cfa81610ce7565b8114610d0557600080fd5b50565b600081359050610d1781610cf1565b92915050565b600060208284031215610d3357610d32610a93565b5b6000610d4184828501610d08565b91505092915050565b7f4e487b7100000000000000000000000000000000000000000000000000000000600052602260045260246000fd5b60006002820490506001821680610d9157607f821691505b60208210811415610da557610da4610d4a565b5b5091905056fea26469706673582212208ad6d55e5c35ede5b830a0223b515ad9c0019befce16b9ca161cdb747605e89064736f6c63430008090033",
  "immutableReferences": {},
  "source": "pragma solidity ^0.8.4;\n\n\nimport \"./BetAccessControl.sol\";\n/// @title Bet contract which contains all storage structures\n/*\nBetStorage.sol contains all events, structs, mappings, and global variables used in more derived contracts.\n*/\ncontract BetStorage is BetAccessControl {\n\n    /*** EVENTS ***/\n    event LogMatchResultUpdate(string description);\n    event LogNewOraclizeQuery(string description);\n    event LogQueryId(bytes32 queryId);\n    event UpdateAddress(string description, address addr);\n    event NewWagerCreated(address indexed creator, uint indexed matchId, bytes20 wagerId, uint wagerType);\n    event WagerAccepted(address indexed sender, address indexed creator, bytes20 indexed wagerId);\n    event WagerSettled(bytes20 indexed wagerId, uint indexed matchId);\n    event NewMatchCreated(uint indexed matchId);\n    event MatchUpdated(uint indexed matchId, uint home, uint away, uint indexed status);\n    //event LogParseResult(string description, uint home, uint away, uint status, uint matchId, uint startTime);\n    //event RecordUpdated(address indexed player, bytes20 indexed wager, uint win, uint loss, uint draw, uint result); //emitted after a users wager is settled, and his record is updated\n\n    /*** DATA TYPES ***/\n    /// @dev The main Event struct. Every event/game in Bet is represented by a copy\n    ///  of this structure. Note that the order of the members in this structure\n    ///  is important because of the byte-packing rules used by Ethereum.\n    ///  Ref: http://solidity.readthedocs.io/en/develop/miscellaneous.html\n    struct Match {\n        uint home; //int score of the match (home team)\n        uint away; //int score of the match (away team)\n        uint status; //int status of match (pre-game, in-progress, cancelled/postponed, final)\n        uint256 startTime; //epoch time (unix time) of match start\n        bool created; //to check for existence in mapping. Will always be true once created\n        bytes20[] wagerIds; //array which holds all wagers associated with this match\n    }\n\n    struct Wager {\n        //necessary Wager data we need to store on-chain\n        address creator; //address of creator.\n        address taker; //address of taker (will be address(0) if this is a pooledWager)\n        uint creatorSide; //side of wager chosen by creator (this will represent a different value depending on wagerType) 1 == home team win (wagertype 0), draw win (wagertype 1), over (wagertype 2)\n        uint takerSide; //side of wager chosen by taker (this will represent a different value depending on wagerType) 2 == away team win (wagertype 0), no-draw win (wagertype 1), under (wagertype 2)\n        uint wagerType; //type of wager 0=team vs team, 1=draw vs no draw,  2=total (over/under),\n        uint spread; // will be 0 in the case of no spread involved (odds only).  Will be > 0 for point spreads and totals\n        uint256 creatorRisk; //tokens risked by creator of wager\n        uint256 takerRisk;\n        uint matchId; //match this wager belongs to\n        bool isSettled; // has the match been settled (paid out) ?\n    }\n\n    /*** STORAGE ***/\n    //variable to halt ability to send oraclize queries\n    bool queriesArePaused = false;\n    uint commission = 97;\n    //variable to pause entire contract\n    bool pauseContract = false;\n    // gas limit we will give for Oraclizes' callback.\n    //NOTE: we will not be refunded if we set a higher limit than necessary, so we must estimate carefully\n    uint256 public oracleGasLimit = 400000;\n    string public oracleDataSourceUrl = \"tbd\"; //XXX TBD\n    address public newContractAddress;\n    /// a string array which records total count of matches.\n    uint[] public matches;\n    // mapping of matchId's (within contract) to Match structs\n    mapping(uint => Match) public matchStructsById;\n    // mapping of oraclize query ids to validity bool\n    mapping(bytes32 => address) public validQueryIds;\n    // used to keep track of the validity of unique ids created for wagers\n    mapping(bytes20 => uint32) blobInfo;\n    // used to store all Wagers\n    mapping(bytes20 => Wager) wagers;\n    //maps a queryId to a wager ID\n    mapping(bytes32 => bytes20) queryIdToWagerId;\n}",
  "sourcePath": "/home/z/code/react-decentralized-betting/contracts/BetStorage.sol",
  "compiler": {
    "name": "solc",
    "version": "0.8.9+commit.e5eed63a.Emscripten.clang"
  },
  "schemaVersion": "3.4.3",
  "updatedAt": "2021-10-22T13:19:06.914Z",
  "devdoc": {
    "kind": "dev",
    "methods": {
      "pause()": {
        "details": "Called by any \"C-level\" role to pause the contract. Used only when  a bug or exploit is detected and we need to limit damage."
      },
      "setCEO(address)": {
        "details": "Assigns a new address to act as the CEO. Only available to the current CEO.",
        "params": {
          "_newCEO": "The address of the new CEO"
        }
      },
      "setCFO(address)": {
        "details": "Assigns a new address to act as the CFO. Only available to the current CEO.",
        "params": {
          "_newCFO": "The address of the new CFO"
        }
      },
      "setCOO(address)": {
        "details": "Assigns a new address to act as the COO. Only available to the current CEO.",
        "params": {
          "_newCOO": "The address of the new COO"
        }
      },
      "unpause()": {
        "details": "Unpauses the smart contract. Can only be called by the CEO, since  one reason we may pause the contract is when CFO or COO accounts are  compromised."
      }
    },
    "title": "Bet contract which contains all storage structures",
    "version": 1
  },
  "userdoc": {
    "kind": "user",
    "methods": {
      "matches(uint256)": {
        "notice": "a string array which records total count of matches."
      }
    },
    "version": 1
  }
}